{"contracts/CityNodeReward.sol":{"CityNodeReward":{"abi":[{"inputs":[],"stateMutability":"nonpayable","type":"constructor"},{"anonymous":false,"inputs":[{"indexed":true,"internalType":"address","name":"account","type":"address"}],"name":"AdminAdded","type":"event"},{"anonymous":false,"inputs":[{"indexed":true,"internalType":"address","name":"account","type":"address"}],"name":"AdminRemoved","type":"event"},{"anonymous":false,"inputs":[{"indexed":false,"internalType":"address","name":"user","type":"address"},{"indexed":false,"internalType":"uint256","name":"applyFee","type":"uint256"}],"name":"ApplyCandidateRecord","type":"event"},{"anonymous":false,"inputs":[{"indexed":false,"internalType":"uint8","name":"version","type":"uint8"}],"name":"Initialized","type":"event"},{"anonymous":false,"inputs":[{"indexed":false,"internalType":"bytes32","name":"cityId","type":"bytes32"},{"indexed":false,"internalType":"uint256","name":"latestDelegate","type":"uint256"},{"indexed":false,"internalType":"uint256","name":"timeStemp","type":"uint256"}],"name":"UpdateLatestDelegateRecord","type":"event"},{"anonymous":false,"inputs":[{"indexed":false,"internalType":"bytes32","name":"cityId","type":"bytes32"},{"indexed":false,"internalType":"uint256","name":"rewardsForSocialFunds","type":"uint256"},{"indexed":false,"internalType":"uint256","name":"timeStemp","type":"uint256"}],"name":"UpdateSocialFundsRecord","type":"event"},{"anonymous":false,"inputs":[{"indexed":false,"internalType":"address","name":"user","type":"address"},{"indexed":false,"internalType":"address","name":"candidate","type":"address"},{"indexed":false,"internalType":"bytes32","name":"cityId","type":"bytes32"},{"indexed":false,"internalType":"uint256","name":"toxNum","type":"uint256"}],"name":"VoteRecord","type":"event"},{"anonymous":false,"inputs":[{"indexed":false,"internalType":"enum Events.VoteStatus","name":"voteStatus","type":"uint8"}],"name":"VoteStatusChangeRecord","type":"event"},{"anonymous":false,"inputs":[{"indexed":false,"internalType":"address","name":"node","type":"address"},{"indexed":false,"internalType":"bytes32","name":"cityId","type":"bytes32"},{"indexed":false,"internalType":"uint256","name":"toxNum","type":"uint256"}],"name":"VoteSuccessRecord","type":"event"},{"inputs":[{"internalType":"address","name":"account","type":"address"}],"name":"addAdmin","outputs":[],"stateMutability":"nonpayable","type":"function"},{"inputs":[{"internalType":"bytes32","name":"cityId","type":"bytes32"},{"internalType":"uint256","name":"latestDelegate_","type":"uint256"}],"name":"adminSetLatestDelegate_","outputs":[],"stateMutability":"nonpayable","type":"function"},{"inputs":[{"internalType":"bytes32","name":"cityId","type":"bytes32"},{"internalType":"uint256","name":"founds_","type":"uint256"}],"name":"adminSetRewardsForSocialFunds","outputs":[],"stateMutability":"nonpayable","type":"function"},{"inputs":[{"internalType":"address","name":"voteAddress_","type":"address"}],"name":"adminSetVoteAddress","outputs":[],"stateMutability":"nonpayable","type":"function"},{"inputs":[],"name":"allAdmins","outputs":[{"internalType":"address[]","name":"admins","type":"address[]"}],"stateMutability":"view","type":"function"},{"inputs":[{"internalType":"address[]","name":"amounts","type":"address[]"}],"name":"batchAddAdmin","outputs":[],"stateMutability":"nonpayable","type":"function"},{"inputs":[{"internalType":"bytes32","name":"cityId","type":"bytes32"}],"name":"campaignSuccessRewards","outputs":[],"stateMutability":"nonpayable","type":"function"},{"inputs":[],"name":"initialize","outputs":[],"stateMutability":"nonpayable","type":"function"},{"inputs":[{"internalType":"address","name":"account","type":"address"}],"name":"isAdmin","outputs":[{"internalType":"bool","name":"","type":"bool"}],"stateMutability":"view","type":"function"},{"inputs":[{"internalType":"bytes32","name":"","type":"bytes32"}],"name":"latestDelegate","outputs":[{"internalType":"uint256","name":"","type":"uint256"}],"stateMutability":"view","type":"function"},{"inputs":[{"internalType":"address","name":"account","type":"address"}],"name":"removeAdmin","outputs":[],"stateMutability":"nonpayable","type":"function"},{"inputs":[],"name":"renounceAdmin","outputs":[],"stateMutability":"nonpayable","type":"function"},{"inputs":[{"internalType":"bytes32","name":"cityId","type":"bytes32"}],"name":"rewardNode","outputs":[],"stateMutability":"nonpayable","type":"function"},{"inputs":[{"internalType":"bytes32","name":"","type":"bytes32"}],"name":"rewardsForSocialFunds","outputs":[{"internalType":"uint256","name":"","type":"uint256"}],"stateMutability":"view","type":"function"},{"inputs":[],"name":"unlock","outputs":[],"stateMutability":"nonpayable","type":"function"},{"inputs":[],"name":"voteAddress","outputs":[{"internalType":"address","name":"","type":"address"}],"stateMutability":"view","type":"function"}],"evm":{"bytecode":{"linkReferences":{},"object":"60806040523480156200001157600080fd5b5062000023336200002960201b60201c565b62000160565b620000448160006200008b60201b62000e4c1790919060201c565b508073ffffffffffffffffffffffffffffffffffffffff167f44d6d25963f097ad14f29f06854a01f575648a1ef82f30e562ccd3889717e33960405160405180910390a250565b6000620000bb836000018373ffffffffffffffffffffffffffffffffffffffff1660001b620000c360201b60201c565b905092915050565b6000620000d783836200013d60201b60201c565b6200013257826000018290806001815401808255809150506001900390600052602060002001600090919091909150558260000180549050836001016000848152602001908152602001600020819055506001905062000137565b600090505b92915050565b600080836001016000848152602001908152602001600020541415905092915050565b611bcc80620001706000396000f3fe608060405234801561001057600080fd5b50600436106101005760003560e01c80638129fc1c11610097578063a442945f11610066578063a442945f14610271578063a69df4b51461028d578063cdcbba7b14610297578063ddb38c92146102b357610100565b80638129fc1c14610211578063836a66361461021b5780638bad0c0a14610237578063a2e44b041461024157610100565b806340f32be6116100d357806340f32be61461018b5780635c22ea01146101a957806370480275146101c55780637f1c4fb0146101e157610100565b80631785f53c1461010557806324d7806c146101215780632c9ab42b146101515780633d6dc9281461016d575b600080fd5b61011f600480360381019061011a9190611239565b6102cf565b005b61013b60048036038101906101369190611239565b610323565b6040516101489190611281565b60405180910390f35b61016b600480360381019061016691906113f5565b610340565b005b6101756103ce565b604051610182919061144d565b60405180910390f35b6101936103f2565b6040516101a09190611526565b60405180910390f35b6101c360048036038101906101be919061157e565b6104d4565b005b6101df60048036038101906101da9190611239565b61084a565b005b6101fb60048036038101906101f6919061157e565b61089e565b60405161020891906115c4565b60405180910390f35b6102196108b6565b005b61023560048036038101906102309190611239565b6109fc565b005b61023f610a87565b005b61025b6004803603810190610256919061157e565b610a92565b60405161026891906115c4565b60405180910390f35b61028b6004803603810190610286919061160b565b610aaa565b005b610295610b49565b005b6102b160048036038101906102ac919061157e565b610b4b565b005b6102cd60048036038101906102c8919061160b565b610dad565b005b6102d833610323565b610317576040517f08c379a000000000000000000000000000000000000000000000000000000000815260040161030e906116ce565b60405180910390fd5b61032081610e7c565b50565b6000610339826000610ed790919063ffffffff16565b9050919050565b61034933610323565b610388576040517f08c379a000000000000000000000000000000000000000000000000000000000815260040161037f906116ce565b60405180910390fd5b60005b81518110156103ca576103b78282815181106103aa576103a96116ee565b5b602002602001015161084a565b80806103c29061174c565b91505061038b565b5050565b60028054906101000a900473ffffffffffffffffffffffffffffffffffffffff1681565b60606103fe6000610f07565b67ffffffffffffffff811115610417576104166112b2565b5b6040519080825280602002602001820160405280156104455781602001602082028036833780820191505090505b50905060005b6104556000610f07565b8110156104d057610470816000610f1c90919063ffffffff16565b828281518110610483576104826116ee565b5b602002602001019073ffffffffffffffffffffffffffffffffffffffff16908173ffffffffffffffffffffffffffffffffffffffff168152505080806104c89061174c565b91505061044b565b5090565b6104dd33610323565b61051c576040517f08c379a0000000000000000000000000000000000000000000000000000000008152600401610513906116ce565b60405180910390fd5b600060028054906101000a900473ffffffffffffffffffffffffffffffffffffffff16905060008173ffffffffffffffffffffffffffffffffffffffff1663e7069dea846040518263ffffffff1660e01b815260040161057c91906117a3565b602060405180830381865afa158015610599573d6000803e3d6000fd5b505050506040513d601f19601f820116820180604052508101906105bd91906117d3565b905060008273ffffffffffffffffffffffffffffffffffffffff1663a1204f87836040518263ffffffff1660e01b81526004016105fa919061144d565b602060405180830381865afa158015610617573d6000803e3d6000fd5b505050506040513d601f19601f8201168201806040525081019061063b9190611815565b90508273ffffffffffffffffffffffffffffffffffffffff1663a2410f3f85846040518363ffffffff1660e01b8152600401610678929190611842565b602060405180830381865afa158015610695573d6000803e3d6000fd5b505050506040513d601f19601f820116820180604052508101906106b99190611815565b506000600460008681526020019081526020016000205460036000878152602001908152602001600020546106ee919061186b565b9050600060648284606461070291906118c1565b61070c91906118f5565b610716919061197e565b905060008573ffffffffffffffffffffffffffffffffffffffff1663c4b6c3816040518163ffffffff1660e01b8152600401602060405180830381865afa158015610765573d6000803e3d6000fd5b505050506040513d601f19601f8201168201806040525081019061078991906117d3565b90508073ffffffffffffffffffffffffffffffffffffffff1663a9059cbb86846040518363ffffffff1660e01b81526004016107c69291906119af565b6020604051808303816000875af11580156107e5573d6000803e3d6000fd5b505050506040513d601f19601f820116820180604052508101906108099190611a04565b5060006064848661081a91906118f5565b610824919061197e565b90506064848661083491906118f5565b61083e919061197e565b90505050505050505050565b61085333610323565b610892576040517f08c379a0000000000000000000000000000000000000000000000000000000008152600401610889906116ce565b60405180910390fd5b61089b81610f36565b50565b60046020528060005260406000206000915090505481565b6000600260019054906101000a900460ff161590508080156108ea57506001600260009054906101000a900460ff1660ff16105b8061091957506108f930610f91565b15801561091857506001600260009054906101000a900460ff1660ff16145b5b610958576040517f08c379a000000000000000000000000000000000000000000000000000000000815260040161094f90611aa3565b60405180910390fd5b6001600260006101000a81548160ff021916908360ff1602179055508015610996576001600260016101000a81548160ff0219169083151502179055505b61099f33610f36565b80156109f9576000600260016101000a81548160ff0219169083151502179055507f7f26b83ff96e1f2b6a682f133852f6798a09c465da95921460cefb384740249860016040516109f09190611b15565b60405180910390a15b50565b610a0533610323565b610a44576040517f08c379a0000000000000000000000000000000000000000000000000000000008152600401610a3b906116ce565b60405180910390fd5b806002806101000a81548173ffffffffffffffffffffffffffffffffffffffff021916908373ffffffffffffffffffffffffffffffffffffffff16021790555050565b610a9033610e7c565b565b60036020528060005260406000206000915090505481565b610ab333610323565b610af2576040517f08c379a0000000000000000000000000000000000000000000000000000000008152600401610ae9906116ce565b60405180910390fd5b8060046000848152602001908152602001600020819055507f78adb735efba8e12a334cf40bdfa96c770d41ebaf264a951b8668abb556f6a5f828242604051610b3d93929190611b30565b60405180910390a15050565b565b610b5433610323565b610b93576040517f08c379a0000000000000000000000000000000000000000000000000000000008152600401610b8a906116ce565b60405180910390fd5b600060028054906101000a900473ffffffffffffffffffffffffffffffffffffffff16905060008173ffffffffffffffffffffffffffffffffffffffff1663e7069dea846040518263ffffffff1660e01b8152600401610bf391906117a3565b602060405180830381865afa158015610c10573d6000803e3d6000fd5b505050506040513d601f19601f82011682018060405250810190610c3491906117d3565b905060008273ffffffffffffffffffffffffffffffffffffffff166355e8426c856040518263ffffffff1660e01b8152600401610c7191906117a3565b602060405180830381865afa158015610c8e573d6000803e3d6000fd5b505050506040513d601f19601f82011682018060405250810190610cb29190611815565b905060008373ffffffffffffffffffffffffffffffffffffffff1663c4b6c3816040518163ffffffff1660e01b8152600401602060405180830381865afa158015610d01573d6000803e3d6000fd5b505050506040513d601f19601f82011682018060405250810190610d2591906117d3565b90508073ffffffffffffffffffffffffffffffffffffffff1663a9059cbb84846040518363ffffffff1660e01b8152600401610d629291906119af565b6020604051808303816000875af1158015610d81573d6000803e3d6000fd5b505050506040513d601f19601f82011682018060405250810190610da59190611a04565b505050505050565b610db633610323565b610df5576040517f08c379a0000000000000000000000000000000000000000000000000000000008152600401610dec906116ce565b60405180910390fd5b8060036000848152602001908152602001600020819055507f3273700d9d1ece7fb854e67f0c4fd16afac4bc63ff630cec2f68e31503189778828242604051610e4093929190611b30565b60405180910390a15050565b6000610e74836000018373ffffffffffffffffffffffffffffffffffffffff1660001b610fb4565b905092915050565b610e9081600061102490919063ffffffff16565b508073ffffffffffffffffffffffffffffffffffffffff167fa3b62bc36326052d97ea62d63c3d60308ed4c3ea8ac079dd8499f1e9c4f80c0f60405160405180910390a250565b6000610eff836000018373ffffffffffffffffffffffffffffffffffffffff1660001b611054565b905092915050565b6000610f1582600001611077565b9050919050565b6000610f2b8360000183611088565b60001c905092915050565b610f4a816000610e4c90919063ffffffff16565b508073ffffffffffffffffffffffffffffffffffffffff167f44d6d25963f097ad14f29f06854a01f575648a1ef82f30e562ccd3889717e33960405160405180910390a250565b6000808273ffffffffffffffffffffffffffffffffffffffff163b119050919050565b6000610fc08383611054565b61101957826000018290806001815401808255809150506001900390600052602060002001600090919091909150558260000180549050836001016000848152602001908152602001600020819055506001905061101e565b600090505b92915050565b600061104c836000018373ffffffffffffffffffffffffffffffffffffffff1660001b6110b3565b905092915050565b600080836001016000848152602001908152602001600020541415905092915050565b600081600001805490509050919050565b60008260000182815481106110a05761109f6116ee565b5b9060005260206000200154905092915050565b600080836001016000848152602001908152602001600020549050600081146111bb5760006001826110e591906118c1565b90506000600186600001805490506110fd91906118c1565b905081811461116c57600086600001828154811061111e5761111d6116ee565b5b9060005260206000200154905080876000018481548110611142576111416116ee565b5b90600052602060002001819055508387600101600083815260200190815260200160002081905550505b856000018054806111805761117f611b67565b5b6001900381819060005260206000200160009055905585600101600086815260200190815260200160002060009055600193505050506111c1565b60009150505b92915050565b6000604051905090565b600080fd5b600080fd5b600073ffffffffffffffffffffffffffffffffffffffff82169050919050565b6000611206826111db565b9050919050565b611216816111fb565b811461122157600080fd5b50565b6000813590506112338161120d565b92915050565b60006020828403121561124f5761124e6111d1565b5b600061125d84828501611224565b91505092915050565b60008115159050919050565b61127b81611266565b82525050565b60006020820190506112966000830184611272565b92915050565b600080fd5b6000601f19601f8301169050919050565b7f4e487b7100000000000000000000000000000000000000000000000000000000600052604160045260246000fd5b6112ea826112a1565b810181811067ffffffffffffffff82111715611309576113086112b2565b5b80604052505050565b600061131c6111c7565b905061132882826112e1565b919050565b600067ffffffffffffffff821115611348576113476112b2565b5b602082029050602081019050919050565b600080fd5b600061137161136c8461132d565b611312565b9050808382526020820190506020840283018581111561139457611393611359565b5b835b818110156113bd57806113a98882611224565b845260208401935050602081019050611396565b5050509392505050565b600082601f8301126113dc576113db61129c565b5b81356113ec84826020860161135e565b91505092915050565b60006020828403121561140b5761140a6111d1565b5b600082013567ffffffffffffffff811115611429576114286111d6565b5b611435848285016113c7565b91505092915050565b611447816111fb565b82525050565b6000602082019050611462600083018461143e565b92915050565b600081519050919050565b600082825260208201905092915050565b6000819050602082019050919050565b61149d816111fb565b82525050565b60006114af8383611494565b60208301905092915050565b6000602082019050919050565b60006114d382611468565b6114dd8185611473565b93506114e883611484565b8060005b8381101561151957815161150088826114a3565b975061150b836114bb565b9250506001810190506114ec565b5085935050505092915050565b6000602082019050818103600083015261154081846114c8565b905092915050565b6000819050919050565b61155b81611548565b811461156657600080fd5b50565b60008135905061157881611552565b92915050565b600060208284031215611594576115936111d1565b5b60006115a284828501611569565b91505092915050565b6000819050919050565b6115be816115ab565b82525050565b60006020820190506115d960008301846115b5565b92915050565b6115e8816115ab565b81146115f357600080fd5b50565b600081359050611605816115df565b92915050565b60008060408385031215611622576116216111d1565b5b600061163085828601611569565b9250506020611641858286016115f6565b9150509250929050565b600082825260208201905092915050565b7f41646d696e526f6c653a2063616c6c657220646f6573206e6f7420686176652060008201527f7468652041646d696e20726f6c65000000000000000000000000000000000000602082015250565b60006116b8602e8361164b565b91506116c38261165c565b604082019050919050565b600060208201905081810360008301526116e7816116ab565b9050919050565b7f4e487b7100000000000000000000000000000000000000000000000000000000600052603260045260246000fd5b7f4e487b7100000000000000000000000000000000000000000000000000000000600052601160045260246000fd5b6000611757826115ab565b91507fffffffffffffffffffffffffffffffffffffffffffffffffffffffffffffffff82036117895761178861171d565b5b600182019050919050565b61179d81611548565b82525050565b60006020820190506117b86000830184611794565b92915050565b6000815190506117cd8161120d565b92915050565b6000602082840312156117e9576117e86111d1565b5b60006117f7848285016117be565b91505092915050565b60008151905061180f816115df565b92915050565b60006020828403121561182b5761182a6111d1565b5b600061183984828501611800565b91505092915050565b60006040820190506118576000830185611794565b611864602083018461143e565b9392505050565b6000611876826115ab565b9150611881836115ab565b9250827fffffffffffffffffffffffffffffffffffffffffffffffffffffffffffffffff038211156118b6576118b561171d565b5b828201905092915050565b60006118cc826115ab565b91506118d7836115ab565b9250828210156118ea576118e961171d565b5b828203905092915050565b6000611900826115ab565b915061190b836115ab565b9250817fffffffffffffffffffffffffffffffffffffffffffffffffffffffffffffffff04831182151516156119445761194361171d565b5b828202905092915050565b7f4e487b7100000000000000000000000000000000000000000000000000000000600052601260045260246000fd5b6000611989826115ab565b9150611994836115ab565b9250826119a4576119a361194f565b5b828204905092915050565b60006040820190506119c4600083018561143e565b6119d160208301846115b5565b9392505050565b6119e181611266565b81146119ec57600080fd5b50565b6000815190506119fe816119d8565b92915050565b600060208284031215611a1a57611a196111d1565b5b6000611a28848285016119ef565b91505092915050565b7f496e697469616c697a61626c653a20636f6e747261637420697320616c72656160008201527f647920696e697469616c697a6564000000000000000000000000000000000000602082015250565b6000611a8d602e8361164b565b9150611a9882611a31565b604082019050919050565b60006020820190508181036000830152611abc81611a80565b9050919050565b6000819050919050565b600060ff82169050919050565b6000819050919050565b6000611aff611afa611af584611ac3565b611ada565b611acd565b9050919050565b611b0f81611ae4565b82525050565b6000602082019050611b2a6000830184611b06565b92915050565b6000606082019050611b456000830186611794565b611b5260208301856115b5565b611b5f60408301846115b5565b949350505050565b7f4e487b7100000000000000000000000000000000000000000000000000000000600052603160045260246000fdfea264697066735822122005962a3e890de1df564c05d43449ec8eb787c4cd7d1f6b38db13a927bdb109e364736f6c634300080d0033","opcodes":"PUSH1 0x80 PUSH1 0x40 MSTORE CALLVALUE DUP1 ISZERO PUSH3 0x11 JUMPI PUSH1 0x0 DUP1 REVERT JUMPDEST POP PUSH3 0x23 CALLER PUSH3 0x29 PUSH1 0x20 SHL PUSH1 0x20 SHR JUMP JUMPDEST PUSH3 0x160 JUMP JUMPDEST PUSH3 0x44 DUP2 PUSH1 0x0 PUSH3 0x8B PUSH1 0x20 SHL PUSH3 0xE4C OR SWAP1 SWAP2 SWAP1 PUSH1 0x20 SHR JUMP JUMPDEST POP DUP1 PUSH20 0xFFFFFFFFFFFFFFFFFFFFFFFFFFFFFFFFFFFFFFFF AND PUSH32 0x44D6D25963F097AD14F29F06854A01F575648A1EF82F30E562CCD3889717E339 PUSH1 0x40 MLOAD PUSH1 0x40 MLOAD DUP1 SWAP2 SUB SWAP1 LOG2 POP JUMP JUMPDEST PUSH1 0x0 PUSH3 0xBB DUP4 PUSH1 0x0 ADD DUP4 PUSH20 0xFFFFFFFFFFFFFFFFFFFFFFFFFFFFFFFFFFFFFFFF AND PUSH1 0x0 SHL PUSH3 0xC3 PUSH1 0x20 SHL PUSH1 0x20 SHR JUMP JUMPDEST SWAP1 POP SWAP3 SWAP2 POP POP JUMP JUMPDEST PUSH1 0x0 PUSH3 0xD7 DUP4 DUP4 PUSH3 0x13D PUSH1 0x20 SHL PUSH1 0x20 SHR JUMP JUMPDEST PUSH3 0x132 JUMPI DUP3 PUSH1 0x0 ADD DUP3 SWAP1 DUP1 PUSH1 0x1 DUP2 SLOAD ADD DUP1 DUP3 SSTORE DUP1 SWAP2 POP POP PUSH1 0x1 SWAP1 SUB SWAP1 PUSH1 0x0 MSTORE PUSH1 0x20 PUSH1 0x0 KECCAK256 ADD PUSH1 0x0 SWAP1 SWAP2 SWAP1 SWAP2 SWAP1 SWAP2 POP SSTORE DUP3 PUSH1 0x0 ADD DUP1 SLOAD SWAP1 POP DUP4 PUSH1 0x1 ADD PUSH1 0x0 DUP5 DUP2 MSTORE PUSH1 0x20 ADD SWAP1 DUP2 MSTORE PUSH1 0x20 ADD PUSH1 0x0 KECCAK256 DUP2 SWAP1 SSTORE POP PUSH1 0x1 SWAP1 POP PUSH3 0x137 JUMP JUMPDEST PUSH1 0x0 SWAP1 POP JUMPDEST SWAP3 SWAP2 POP POP JUMP JUMPDEST PUSH1 0x0 DUP1 DUP4 PUSH1 0x1 ADD PUSH1 0x0 DUP5 DUP2 MSTORE PUSH1 0x20 ADD SWAP1 DUP2 MSTORE PUSH1 0x20 ADD PUSH1 0x0 KECCAK256 SLOAD EQ ISZERO SWAP1 POP SWAP3 SWAP2 POP POP JUMP JUMPDEST PUSH2 0x1BCC DUP1 PUSH3 0x170 PUSH1 0x0 CODECOPY PUSH1 0x0 RETURN INVALID PUSH1 0x80 PUSH1 0x40 MSTORE CALLVALUE DUP1 ISZERO PUSH2 0x10 JUMPI PUSH1 0x0 DUP1 REVERT JUMPDEST POP PUSH1 0x4 CALLDATASIZE LT PUSH2 0x100 JUMPI PUSH1 0x0 CALLDATALOAD PUSH1 0xE0 SHR DUP1 PUSH4 0x8129FC1C GT PUSH2 0x97 JUMPI DUP1 PUSH4 0xA442945F GT PUSH2 0x66 JUMPI DUP1 PUSH4 0xA442945F EQ PUSH2 0x271 JUMPI DUP1 PUSH4 0xA69DF4B5 EQ PUSH2 0x28D JUMPI DUP1 PUSH4 0xCDCBBA7B EQ PUSH2 0x297 JUMPI DUP1 PUSH4 0xDDB38C92 EQ PUSH2 0x2B3 JUMPI PUSH2 0x100 JUMP JUMPDEST DUP1 PUSH4 0x8129FC1C EQ PUSH2 0x211 JUMPI DUP1 PUSH4 0x836A6636 EQ PUSH2 0x21B JUMPI DUP1 PUSH4 0x8BAD0C0A EQ PUSH2 0x237 JUMPI DUP1 PUSH4 0xA2E44B04 EQ PUSH2 0x241 JUMPI PUSH2 0x100 JUMP JUMPDEST DUP1 PUSH4 0x40F32BE6 GT PUSH2 0xD3 JUMPI DUP1 PUSH4 0x40F32BE6 EQ PUSH2 0x18B JUMPI DUP1 PUSH4 0x5C22EA01 EQ PUSH2 0x1A9 JUMPI DUP1 PUSH4 0x70480275 EQ PUSH2 0x1C5 JUMPI DUP1 PUSH4 0x7F1C4FB0 EQ PUSH2 0x1E1 JUMPI PUSH2 0x100 JUMP JUMPDEST DUP1 PUSH4 0x1785F53C EQ PUSH2 0x105 JUMPI DUP1 PUSH4 0x24D7806C EQ PUSH2 0x121 JUMPI DUP1 PUSH4 0x2C9AB42B EQ PUSH2 0x151 JUMPI DUP1 PUSH4 0x3D6DC928 EQ PUSH2 0x16D JUMPI JUMPDEST PUSH1 0x0 DUP1 REVERT JUMPDEST PUSH2 0x11F PUSH1 0x4 DUP1 CALLDATASIZE SUB DUP2 ADD SWAP1 PUSH2 0x11A SWAP2 SWAP1 PUSH2 0x1239 JUMP JUMPDEST PUSH2 0x2CF JUMP JUMPDEST STOP JUMPDEST PUSH2 0x13B PUSH1 0x4 DUP1 CALLDATASIZE SUB DUP2 ADD SWAP1 PUSH2 0x136 SWAP2 SWAP1 PUSH2 0x1239 JUMP JUMPDEST PUSH2 0x323 JUMP JUMPDEST PUSH1 0x40 MLOAD PUSH2 0x148 SWAP2 SWAP1 PUSH2 0x1281 JUMP JUMPDEST PUSH1 0x40 MLOAD DUP1 SWAP2 SUB SWAP1 RETURN JUMPDEST PUSH2 0x16B PUSH1 0x4 DUP1 CALLDATASIZE SUB DUP2 ADD SWAP1 PUSH2 0x166 SWAP2 SWAP1 PUSH2 0x13F5 JUMP JUMPDEST PUSH2 0x340 JUMP JUMPDEST STOP JUMPDEST PUSH2 0x175 PUSH2 0x3CE JUMP JUMPDEST PUSH1 0x40 MLOAD PUSH2 0x182 SWAP2 SWAP1 PUSH2 0x144D JUMP JUMPDEST PUSH1 0x40 MLOAD DUP1 SWAP2 SUB SWAP1 RETURN JUMPDEST PUSH2 0x193 PUSH2 0x3F2 JUMP JUMPDEST PUSH1 0x40 MLOAD PUSH2 0x1A0 SWAP2 SWAP1 PUSH2 0x1526 JUMP JUMPDEST PUSH1 0x40 MLOAD DUP1 SWAP2 SUB SWAP1 RETURN JUMPDEST PUSH2 0x1C3 PUSH1 0x4 DUP1 CALLDATASIZE SUB DUP2 ADD SWAP1 PUSH2 0x1BE SWAP2 SWAP1 PUSH2 0x157E JUMP JUMPDEST PUSH2 0x4D4 JUMP JUMPDEST STOP JUMPDEST PUSH2 0x1DF PUSH1 0x4 DUP1 CALLDATASIZE SUB DUP2 ADD SWAP1 PUSH2 0x1DA SWAP2 SWAP1 PUSH2 0x1239 JUMP JUMPDEST PUSH2 0x84A JUMP JUMPDEST STOP JUMPDEST PUSH2 0x1FB PUSH1 0x4 DUP1 CALLDATASIZE SUB DUP2 ADD SWAP1 PUSH2 0x1F6 SWAP2 SWAP1 PUSH2 0x157E JUMP JUMPDEST PUSH2 0x89E JUMP JUMPDEST PUSH1 0x40 MLOAD PUSH2 0x208 SWAP2 SWAP1 PUSH2 0x15C4 JUMP JUMPDEST PUSH1 0x40 MLOAD DUP1 SWAP2 SUB SWAP1 RETURN JUMPDEST PUSH2 0x219 PUSH2 0x8B6 JUMP JUMPDEST STOP JUMPDEST PUSH2 0x235 PUSH1 0x4 DUP1 CALLDATASIZE SUB DUP2 ADD SWAP1 PUSH2 0x230 SWAP2 SWAP1 PUSH2 0x1239 JUMP JUMPDEST PUSH2 0x9FC JUMP JUMPDEST STOP JUMPDEST PUSH2 0x23F PUSH2 0xA87 JUMP JUMPDEST STOP JUMPDEST PUSH2 0x25B PUSH1 0x4 DUP1 CALLDATASIZE SUB DUP2 ADD SWAP1 PUSH2 0x256 SWAP2 SWAP1 PUSH2 0x157E JUMP JUMPDEST PUSH2 0xA92 JUMP JUMPDEST PUSH1 0x40 MLOAD PUSH2 0x268 SWAP2 SWAP1 PUSH2 0x15C4 JUMP JUMPDEST PUSH1 0x40 MLOAD DUP1 SWAP2 SUB SWAP1 RETURN JUMPDEST PUSH2 0x28B PUSH1 0x4 DUP1 CALLDATASIZE SUB DUP2 ADD SWAP1 PUSH2 0x286 SWAP2 SWAP1 PUSH2 0x160B JUMP JUMPDEST PUSH2 0xAAA JUMP JUMPDEST STOP JUMPDEST PUSH2 0x295 PUSH2 0xB49 JUMP JUMPDEST STOP JUMPDEST PUSH2 0x2B1 PUSH1 0x4 DUP1 CALLDATASIZE SUB DUP2 ADD SWAP1 PUSH2 0x2AC SWAP2 SWAP1 PUSH2 0x157E JUMP JUMPDEST PUSH2 0xB4B JUMP JUMPDEST STOP JUMPDEST PUSH2 0x2CD PUSH1 0x4 DUP1 CALLDATASIZE SUB DUP2 ADD SWAP1 PUSH2 0x2C8 SWAP2 SWAP1 PUSH2 0x160B JUMP JUMPDEST PUSH2 0xDAD JUMP JUMPDEST STOP JUMPDEST PUSH2 0x2D8 CALLER PUSH2 0x323 JUMP JUMPDEST PUSH2 0x317 JUMPI PUSH1 0x40 MLOAD PUSH32 0x8C379A000000000000000000000000000000000000000000000000000000000 DUP2 MSTORE PUSH1 0x4 ADD PUSH2 0x30E SWAP1 PUSH2 0x16CE JUMP JUMPDEST PUSH1 0x40 MLOAD DUP1 SWAP2 SUB SWAP1 REVERT JUMPDEST PUSH2 0x320 DUP2 PUSH2 0xE7C JUMP JUMPDEST POP JUMP JUMPDEST PUSH1 0x0 PUSH2 0x339 DUP3 PUSH1 0x0 PUSH2 0xED7 SWAP1 SWAP2 SWAP1 PUSH4 0xFFFFFFFF AND JUMP JUMPDEST SWAP1 POP SWAP2 SWAP1 POP JUMP JUMPDEST PUSH2 0x349 CALLER PUSH2 0x323 JUMP JUMPDEST PUSH2 0x388 JUMPI PUSH1 0x40 MLOAD PUSH32 0x8C379A000000000000000000000000000000000000000000000000000000000 DUP2 MSTORE PUSH1 0x4 ADD PUSH2 0x37F SWAP1 PUSH2 0x16CE JUMP JUMPDEST PUSH1 0x40 MLOAD DUP1 SWAP2 SUB SWAP1 REVERT JUMPDEST PUSH1 0x0 JUMPDEST DUP2 MLOAD DUP2 LT ISZERO PUSH2 0x3CA JUMPI PUSH2 0x3B7 DUP3 DUP3 DUP2 MLOAD DUP2 LT PUSH2 0x3AA JUMPI PUSH2 0x3A9 PUSH2 0x16EE JUMP JUMPDEST JUMPDEST PUSH1 0x20 MUL PUSH1 0x20 ADD ADD MLOAD PUSH2 0x84A JUMP JUMPDEST DUP1 DUP1 PUSH2 0x3C2 SWAP1 PUSH2 0x174C JUMP JUMPDEST SWAP2 POP POP PUSH2 0x38B JUMP JUMPDEST POP POP JUMP JUMPDEST PUSH1 0x2 DUP1 SLOAD SWAP1 PUSH2 0x100 EXP SWAP1 DIV PUSH20 0xFFFFFFFFFFFFFFFFFFFFFFFFFFFFFFFFFFFFFFFF AND DUP2 JUMP JUMPDEST PUSH1 0x60 PUSH2 0x3FE PUSH1 0x0 PUSH2 0xF07 JUMP JUMPDEST PUSH8 0xFFFFFFFFFFFFFFFF DUP2 GT ISZERO PUSH2 0x417 JUMPI PUSH2 0x416 PUSH2 0x12B2 JUMP JUMPDEST JUMPDEST PUSH1 0x40 MLOAD SWAP1 DUP1 DUP3 MSTORE DUP1 PUSH1 0x20 MUL PUSH1 0x20 ADD DUP3 ADD PUSH1 0x40 MSTORE DUP1 ISZERO PUSH2 0x445 JUMPI DUP2 PUSH1 0x20 ADD PUSH1 0x20 DUP3 MUL DUP1 CALLDATASIZE DUP4 CALLDATACOPY DUP1 DUP3 ADD SWAP2 POP POP SWAP1 POP JUMPDEST POP SWAP1 POP PUSH1 0x0 JUMPDEST PUSH2 0x455 PUSH1 0x0 PUSH2 0xF07 JUMP JUMPDEST DUP2 LT ISZERO PUSH2 0x4D0 JUMPI PUSH2 0x470 DUP2 PUSH1 0x0 PUSH2 0xF1C SWAP1 SWAP2 SWAP1 PUSH4 0xFFFFFFFF AND JUMP JUMPDEST DUP3 DUP3 DUP2 MLOAD DUP2 LT PUSH2 0x483 JUMPI PUSH2 0x482 PUSH2 0x16EE JUMP JUMPDEST JUMPDEST PUSH1 0x20 MUL PUSH1 0x20 ADD ADD SWAP1 PUSH20 0xFFFFFFFFFFFFFFFFFFFFFFFFFFFFFFFFFFFFFFFF AND SWAP1 DUP2 PUSH20 0xFFFFFFFFFFFFFFFFFFFFFFFFFFFFFFFFFFFFFFFF AND DUP2 MSTORE POP POP DUP1 DUP1 PUSH2 0x4C8 SWAP1 PUSH2 0x174C JUMP JUMPDEST SWAP2 POP POP PUSH2 0x44B JUMP JUMPDEST POP SWAP1 JUMP JUMPDEST PUSH2 0x4DD CALLER PUSH2 0x323 JUMP JUMPDEST PUSH2 0x51C JUMPI PUSH1 0x40 MLOAD PUSH32 0x8C379A000000000000000000000000000000000000000000000000000000000 DUP2 MSTORE PUSH1 0x4 ADD PUSH2 0x513 SWAP1 PUSH2 0x16CE JUMP JUMPDEST PUSH1 0x40 MLOAD DUP1 SWAP2 SUB SWAP1 REVERT JUMPDEST PUSH1 0x0 PUSH1 0x2 DUP1 SLOAD SWAP1 PUSH2 0x100 EXP SWAP1 DIV PUSH20 0xFFFFFFFFFFFFFFFFFFFFFFFFFFFFFFFFFFFFFFFF AND SWAP1 POP PUSH1 0x0 DUP2 PUSH20 0xFFFFFFFFFFFFFFFFFFFFFFFFFFFFFFFFFFFFFFFF AND PUSH4 0xE7069DEA DUP5 PUSH1 0x40 MLOAD DUP3 PUSH4 0xFFFFFFFF AND PUSH1 0xE0 SHL DUP2 MSTORE PUSH1 0x4 ADD PUSH2 0x57C SWAP2 SWAP1 PUSH2 0x17A3 JUMP JUMPDEST PUSH1 0x20 PUSH1 0x40 MLOAD DUP1 DUP4 SUB DUP2 DUP7 GAS STATICCALL ISZERO DUP1 ISZERO PUSH2 0x599 JUMPI RETURNDATASIZE PUSH1 0x0 DUP1 RETURNDATACOPY RETURNDATASIZE PUSH1 0x0 REVERT JUMPDEST POP POP POP POP PUSH1 0x40 MLOAD RETURNDATASIZE PUSH1 0x1F NOT PUSH1 0x1F DUP3 ADD AND DUP3 ADD DUP1 PUSH1 0x40 MSTORE POP DUP2 ADD SWAP1 PUSH2 0x5BD SWAP2 SWAP1 PUSH2 0x17D3 JUMP JUMPDEST SWAP1 POP PUSH1 0x0 DUP3 PUSH20 0xFFFFFFFFFFFFFFFFFFFFFFFFFFFFFFFFFFFFFFFF AND PUSH4 0xA1204F87 DUP4 PUSH1 0x40 MLOAD DUP3 PUSH4 0xFFFFFFFF AND PUSH1 0xE0 SHL DUP2 MSTORE PUSH1 0x4 ADD PUSH2 0x5FA SWAP2 SWAP1 PUSH2 0x144D JUMP JUMPDEST PUSH1 0x20 PUSH1 0x40 MLOAD DUP1 DUP4 SUB DUP2 DUP7 GAS STATICCALL ISZERO DUP1 ISZERO PUSH2 0x617 JUMPI RETURNDATASIZE PUSH1 0x0 DUP1 RETURNDATACOPY RETURNDATASIZE PUSH1 0x0 REVERT JUMPDEST POP POP POP POP PUSH1 0x40 MLOAD RETURNDATASIZE PUSH1 0x1F NOT PUSH1 0x1F DUP3 ADD AND DUP3 ADD DUP1 PUSH1 0x40 MSTORE POP DUP2 ADD SWAP1 PUSH2 0x63B SWAP2 SWAP1 PUSH2 0x1815 JUMP JUMPDEST SWAP1 POP DUP3 PUSH20 0xFFFFFFFFFFFFFFFFFFFFFFFFFFFFFFFFFFFFFFFF AND PUSH4 0xA2410F3F DUP6 DUP5 PUSH1 0x40 MLOAD DUP4 PUSH4 0xFFFFFFFF AND PUSH1 0xE0 SHL DUP2 MSTORE PUSH1 0x4 ADD PUSH2 0x678 SWAP3 SWAP2 SWAP1 PUSH2 0x1842 JUMP JUMPDEST PUSH1 0x20 PUSH1 0x40 MLOAD DUP1 DUP4 SUB DUP2 DUP7 GAS STATICCALL ISZERO DUP1 ISZERO PUSH2 0x695 JUMPI RETURNDATASIZE PUSH1 0x0 DUP1 RETURNDATACOPY RETURNDATASIZE PUSH1 0x0 REVERT JUMPDEST POP POP POP POP PUSH1 0x40 MLOAD RETURNDATASIZE PUSH1 0x1F NOT PUSH1 0x1F DUP3 ADD AND DUP3 ADD DUP1 PUSH1 0x40 MSTORE POP DUP2 ADD SWAP1 PUSH2 0x6B9 SWAP2 SWAP1 PUSH2 0x1815 JUMP JUMPDEST POP PUSH1 0x0 PUSH1 0x4 PUSH1 0x0 DUP7 DUP2 MSTORE PUSH1 0x20 ADD SWAP1 DUP2 MSTORE PUSH1 0x20 ADD PUSH1 0x0 KECCAK256 SLOAD PUSH1 0x3 PUSH1 0x0 DUP8 DUP2 MSTORE PUSH1 0x20 ADD SWAP1 DUP2 MSTORE PUSH1 0x20 ADD PUSH1 0x0 KECCAK256 SLOAD PUSH2 0x6EE SWAP2 SWAP1 PUSH2 0x186B JUMP JUMPDEST SWAP1 POP PUSH1 0x0 PUSH1 0x64 DUP3 DUP5 PUSH1 0x64 PUSH2 0x702 SWAP2 SWAP1 PUSH2 0x18C1 JUMP JUMPDEST PUSH2 0x70C SWAP2 SWAP1 PUSH2 0x18F5 JUMP JUMPDEST PUSH2 0x716 SWAP2 SWAP1 PUSH2 0x197E JUMP JUMPDEST SWAP1 POP PUSH1 0x0 DUP6 PUSH20 0xFFFFFFFFFFFFFFFFFFFFFFFFFFFFFFFFFFFFFFFF AND PUSH4 0xC4B6C381 PUSH1 0x40 MLOAD DUP2 PUSH4 0xFFFFFFFF AND PUSH1 0xE0 SHL DUP2 MSTORE PUSH1 0x4 ADD PUSH1 0x20 PUSH1 0x40 MLOAD DUP1 DUP4 SUB DUP2 DUP7 GAS STATICCALL ISZERO DUP1 ISZERO PUSH2 0x765 JUMPI RETURNDATASIZE PUSH1 0x0 DUP1 RETURNDATACOPY RETURNDATASIZE PUSH1 0x0 REVERT JUMPDEST POP POP POP POP PUSH1 0x40 MLOAD RETURNDATASIZE PUSH1 0x1F NOT PUSH1 0x1F DUP3 ADD AND DUP3 ADD DUP1 PUSH1 0x40 MSTORE POP DUP2 ADD SWAP1 PUSH2 0x789 SWAP2 SWAP1 PUSH2 0x17D3 JUMP JUMPDEST SWAP1 POP DUP1 PUSH20 0xFFFFFFFFFFFFFFFFFFFFFFFFFFFFFFFFFFFFFFFF AND PUSH4 0xA9059CBB DUP7 DUP5 PUSH1 0x40 MLOAD DUP4 PUSH4 0xFFFFFFFF AND PUSH1 0xE0 SHL DUP2 MSTORE PUSH1 0x4 ADD PUSH2 0x7C6 SWAP3 SWAP2 SWAP1 PUSH2 0x19AF JUMP JUMPDEST PUSH1 0x20 PUSH1 0x40 MLOAD DUP1 DUP4 SUB DUP2 PUSH1 0x0 DUP8 GAS CALL ISZERO DUP1 ISZERO PUSH2 0x7E5 JUMPI RETURNDATASIZE PUSH1 0x0 DUP1 RETURNDATACOPY RETURNDATASIZE PUSH1 0x0 REVERT JUMPDEST POP POP POP POP PUSH1 0x40 MLOAD RETURNDATASIZE PUSH1 0x1F NOT PUSH1 0x1F DUP3 ADD AND DUP3 ADD DUP1 PUSH1 0x40 MSTORE POP DUP2 ADD SWAP1 PUSH2 0x809 SWAP2 SWAP1 PUSH2 0x1A04 JUMP JUMPDEST POP PUSH1 0x0 PUSH1 0x64 DUP5 DUP7 PUSH2 0x81A SWAP2 SWAP1 PUSH2 0x18F5 JUMP JUMPDEST PUSH2 0x824 SWAP2 SWAP1 PUSH2 0x197E JUMP JUMPDEST SWAP1 POP PUSH1 0x64 DUP5 DUP7 PUSH2 0x834 SWAP2 SWAP1 PUSH2 0x18F5 JUMP JUMPDEST PUSH2 0x83E SWAP2 SWAP1 PUSH2 0x197E JUMP JUMPDEST SWAP1 POP POP POP POP POP POP POP POP POP JUMP JUMPDEST PUSH2 0x853 CALLER PUSH2 0x323 JUMP JUMPDEST PUSH2 0x892 JUMPI PUSH1 0x40 MLOAD PUSH32 0x8C379A000000000000000000000000000000000000000000000000000000000 DUP2 MSTORE PUSH1 0x4 ADD PUSH2 0x889 SWAP1 PUSH2 0x16CE JUMP JUMPDEST PUSH1 0x40 MLOAD DUP1 SWAP2 SUB SWAP1 REVERT JUMPDEST PUSH2 0x89B DUP2 PUSH2 0xF36 JUMP JUMPDEST POP JUMP JUMPDEST PUSH1 0x4 PUSH1 0x20 MSTORE DUP1 PUSH1 0x0 MSTORE PUSH1 0x40 PUSH1 0x0 KECCAK256 PUSH1 0x0 SWAP2 POP SWAP1 POP SLOAD DUP2 JUMP JUMPDEST PUSH1 0x0 PUSH1 0x2 PUSH1 0x1 SWAP1 SLOAD SWAP1 PUSH2 0x100 EXP SWAP1 DIV PUSH1 0xFF AND ISZERO SWAP1 POP DUP1 DUP1 ISZERO PUSH2 0x8EA JUMPI POP PUSH1 0x1 PUSH1 0x2 PUSH1 0x0 SWAP1 SLOAD SWAP1 PUSH2 0x100 EXP SWAP1 DIV PUSH1 0xFF AND PUSH1 0xFF AND LT JUMPDEST DUP1 PUSH2 0x919 JUMPI POP PUSH2 0x8F9 ADDRESS PUSH2 0xF91 JUMP JUMPDEST ISZERO DUP1 ISZERO PUSH2 0x918 JUMPI POP PUSH1 0x1 PUSH1 0x2 PUSH1 0x0 SWAP1 SLOAD SWAP1 PUSH2 0x100 EXP SWAP1 DIV PUSH1 0xFF AND PUSH1 0xFF AND EQ JUMPDEST JUMPDEST PUSH2 0x958 JUMPI PUSH1 0x40 MLOAD PUSH32 0x8C379A000000000000000000000000000000000000000000000000000000000 DUP2 MSTORE PUSH1 0x4 ADD PUSH2 0x94F SWAP1 PUSH2 0x1AA3 JUMP JUMPDEST PUSH1 0x40 MLOAD DUP1 SWAP2 SUB SWAP1 REVERT JUMPDEST PUSH1 0x1 PUSH1 0x2 PUSH1 0x0 PUSH2 0x100 EXP DUP2 SLOAD DUP2 PUSH1 0xFF MUL NOT AND SWAP1 DUP4 PUSH1 0xFF AND MUL OR SWAP1 SSTORE POP DUP1 ISZERO PUSH2 0x996 JUMPI PUSH1 0x1 PUSH1 0x2 PUSH1 0x1 PUSH2 0x100 EXP DUP2 SLOAD DUP2 PUSH1 0xFF MUL NOT AND SWAP1 DUP4 ISZERO ISZERO MUL OR SWAP1 SSTORE POP JUMPDEST PUSH2 0x99F CALLER PUSH2 0xF36 JUMP JUMPDEST DUP1 ISZERO PUSH2 0x9F9 JUMPI PUSH1 0x0 PUSH1 0x2 PUSH1 0x1 PUSH2 0x100 EXP DUP2 SLOAD DUP2 PUSH1 0xFF MUL NOT AND SWAP1 DUP4 ISZERO ISZERO MUL OR SWAP1 SSTORE POP PUSH32 0x7F26B83FF96E1F2B6A682F133852F6798A09C465DA95921460CEFB3847402498 PUSH1 0x1 PUSH1 0x40 MLOAD PUSH2 0x9F0 SWAP2 SWAP1 PUSH2 0x1B15 JUMP JUMPDEST PUSH1 0x40 MLOAD DUP1 SWAP2 SUB SWAP1 LOG1 JUMPDEST POP JUMP JUMPDEST PUSH2 0xA05 CALLER PUSH2 0x323 JUMP JUMPDEST PUSH2 0xA44 JUMPI PUSH1 0x40 MLOAD PUSH32 0x8C379A000000000000000000000000000000000000000000000000000000000 DUP2 MSTORE PUSH1 0x4 ADD PUSH2 0xA3B SWAP1 PUSH2 0x16CE JUMP JUMPDEST PUSH1 0x40 MLOAD DUP1 SWAP2 SUB SWAP1 REVERT JUMPDEST DUP1 PUSH1 0x2 DUP1 PUSH2 0x100 EXP DUP2 SLOAD DUP2 PUSH20 0xFFFFFFFFFFFFFFFFFFFFFFFFFFFFFFFFFFFFFFFF MUL NOT AND SWAP1 DUP4 PUSH20 0xFFFFFFFFFFFFFFFFFFFFFFFFFFFFFFFFFFFFFFFF AND MUL OR SWAP1 SSTORE POP POP JUMP JUMPDEST PUSH2 0xA90 CALLER PUSH2 0xE7C JUMP JUMPDEST JUMP JUMPDEST PUSH1 0x3 PUSH1 0x20 MSTORE DUP1 PUSH1 0x0 MSTORE PUSH1 0x40 PUSH1 0x0 KECCAK256 PUSH1 0x0 SWAP2 POP SWAP1 POP SLOAD DUP2 JUMP JUMPDEST PUSH2 0xAB3 CALLER PUSH2 0x323 JUMP JUMPDEST PUSH2 0xAF2 JUMPI PUSH1 0x40 MLOAD PUSH32 0x8C379A000000000000000000000000000000000000000000000000000000000 DUP2 MSTORE PUSH1 0x4 ADD PUSH2 0xAE9 SWAP1 PUSH2 0x16CE JUMP JUMPDEST PUSH1 0x40 MLOAD DUP1 SWAP2 SUB SWAP1 REVERT JUMPDEST DUP1 PUSH1 0x4 PUSH1 0x0 DUP5 DUP2 MSTORE PUSH1 0x20 ADD SWAP1 DUP2 MSTORE PUSH1 0x20 ADD PUSH1 0x0 KECCAK256 DUP2 SWAP1 SSTORE POP PUSH32 0x78ADB735EFBA8E12A334CF40BDFA96C770D41EBAF264A951B8668ABB556F6A5F DUP3 DUP3 TIMESTAMP PUSH1 0x40 MLOAD PUSH2 0xB3D SWAP4 SWAP3 SWAP2 SWAP1 PUSH2 0x1B30 JUMP JUMPDEST PUSH1 0x40 MLOAD DUP1 SWAP2 SUB SWAP1 LOG1 POP POP JUMP JUMPDEST JUMP JUMPDEST PUSH2 0xB54 CALLER PUSH2 0x323 JUMP JUMPDEST PUSH2 0xB93 JUMPI PUSH1 0x40 MLOAD PUSH32 0x8C379A000000000000000000000000000000000000000000000000000000000 DUP2 MSTORE PUSH1 0x4 ADD PUSH2 0xB8A SWAP1 PUSH2 0x16CE JUMP JUMPDEST PUSH1 0x40 MLOAD DUP1 SWAP2 SUB SWAP1 REVERT JUMPDEST PUSH1 0x0 PUSH1 0x2 DUP1 SLOAD SWAP1 PUSH2 0x100 EXP SWAP1 DIV PUSH20 0xFFFFFFFFFFFFFFFFFFFFFFFFFFFFFFFFFFFFFFFF AND SWAP1 POP PUSH1 0x0 DUP2 PUSH20 0xFFFFFFFFFFFFFFFFFFFFFFFFFFFFFFFFFFFFFFFF AND PUSH4 0xE7069DEA DUP5 PUSH1 0x40 MLOAD DUP3 PUSH4 0xFFFFFFFF AND PUSH1 0xE0 SHL DUP2 MSTORE PUSH1 0x4 ADD PUSH2 0xBF3 SWAP2 SWAP1 PUSH2 0x17A3 JUMP JUMPDEST PUSH1 0x20 PUSH1 0x40 MLOAD DUP1 DUP4 SUB DUP2 DUP7 GAS STATICCALL ISZERO DUP1 ISZERO PUSH2 0xC10 JUMPI RETURNDATASIZE PUSH1 0x0 DUP1 RETURNDATACOPY RETURNDATASIZE PUSH1 0x0 REVERT JUMPDEST POP POP POP POP PUSH1 0x40 MLOAD RETURNDATASIZE PUSH1 0x1F NOT PUSH1 0x1F DUP3 ADD AND DUP3 ADD DUP1 PUSH1 0x40 MSTORE POP DUP2 ADD SWAP1 PUSH2 0xC34 SWAP2 SWAP1 PUSH2 0x17D3 JUMP JUMPDEST SWAP1 POP PUSH1 0x0 DUP3 PUSH20 0xFFFFFFFFFFFFFFFFFFFFFFFFFFFFFFFFFFFFFFFF AND PUSH4 0x55E8426C DUP6 PUSH1 0x40 MLOAD DUP3 PUSH4 0xFFFFFFFF AND PUSH1 0xE0 SHL DUP2 MSTORE PUSH1 0x4 ADD PUSH2 0xC71 SWAP2 SWAP1 PUSH2 0x17A3 JUMP JUMPDEST PUSH1 0x20 PUSH1 0x40 MLOAD DUP1 DUP4 SUB DUP2 DUP7 GAS STATICCALL ISZERO DUP1 ISZERO PUSH2 0xC8E JUMPI RETURNDATASIZE PUSH1 0x0 DUP1 RETURNDATACOPY RETURNDATASIZE PUSH1 0x0 REVERT JUMPDEST POP POP POP POP PUSH1 0x40 MLOAD RETURNDATASIZE PUSH1 0x1F NOT PUSH1 0x1F DUP3 ADD AND DUP3 ADD DUP1 PUSH1 0x40 MSTORE POP DUP2 ADD SWAP1 PUSH2 0xCB2 SWAP2 SWAP1 PUSH2 0x1815 JUMP JUMPDEST SWAP1 POP PUSH1 0x0 DUP4 PUSH20 0xFFFFFFFFFFFFFFFFFFFFFFFFFFFFFFFFFFFFFFFF AND PUSH4 0xC4B6C381 PUSH1 0x40 MLOAD DUP2 PUSH4 0xFFFFFFFF AND PUSH1 0xE0 SHL DUP2 MSTORE PUSH1 0x4 ADD PUSH1 0x20 PUSH1 0x40 MLOAD DUP1 DUP4 SUB DUP2 DUP7 GAS STATICCALL ISZERO DUP1 ISZERO PUSH2 0xD01 JUMPI RETURNDATASIZE PUSH1 0x0 DUP1 RETURNDATACOPY RETURNDATASIZE PUSH1 0x0 REVERT JUMPDEST POP POP POP POP PUSH1 0x40 MLOAD RETURNDATASIZE PUSH1 0x1F NOT PUSH1 0x1F DUP3 ADD AND DUP3 ADD DUP1 PUSH1 0x40 MSTORE POP DUP2 ADD SWAP1 PUSH2 0xD25 SWAP2 SWAP1 PUSH2 0x17D3 JUMP JUMPDEST SWAP1 POP DUP1 PUSH20 0xFFFFFFFFFFFFFFFFFFFFFFFFFFFFFFFFFFFFFFFF AND PUSH4 0xA9059CBB DUP5 DUP5 PUSH1 0x40 MLOAD DUP4 PUSH4 0xFFFFFFFF AND PUSH1 0xE0 SHL DUP2 MSTORE PUSH1 0x4 ADD PUSH2 0xD62 SWAP3 SWAP2 SWAP1 PUSH2 0x19AF JUMP JUMPDEST PUSH1 0x20 PUSH1 0x40 MLOAD DUP1 DUP4 SUB DUP2 PUSH1 0x0 DUP8 GAS CALL ISZERO DUP1 ISZERO PUSH2 0xD81 JUMPI RETURNDATASIZE PUSH1 0x0 DUP1 RETURNDATACOPY RETURNDATASIZE PUSH1 0x0 REVERT JUMPDEST POP POP POP POP PUSH1 0x40 MLOAD RETURNDATASIZE PUSH1 0x1F NOT PUSH1 0x1F DUP3 ADD AND DUP3 ADD DUP1 PUSH1 0x40 MSTORE POP DUP2 ADD SWAP1 PUSH2 0xDA5 SWAP2 SWAP1 PUSH2 0x1A04 JUMP JUMPDEST POP POP POP POP POP POP JUMP JUMPDEST PUSH2 0xDB6 CALLER PUSH2 0x323 JUMP JUMPDEST PUSH2 0xDF5 JUMPI PUSH1 0x40 MLOAD PUSH32 0x8C379A000000000000000000000000000000000000000000000000000000000 DUP2 MSTORE PUSH1 0x4 ADD PUSH2 0xDEC SWAP1 PUSH2 0x16CE JUMP JUMPDEST PUSH1 0x40 MLOAD DUP1 SWAP2 SUB SWAP1 REVERT JUMPDEST DUP1 PUSH1 0x3 PUSH1 0x0 DUP5 DUP2 MSTORE PUSH1 0x20 ADD SWAP1 DUP2 MSTORE PUSH1 0x20 ADD PUSH1 0x0 KECCAK256 DUP2 SWAP1 SSTORE POP PUSH32 0x3273700D9D1ECE7FB854E67F0C4FD16AFAC4BC63FF630CEC2F68E31503189778 DUP3 DUP3 TIMESTAMP PUSH1 0x40 MLOAD PUSH2 0xE40 SWAP4 SWAP3 SWAP2 SWAP1 PUSH2 0x1B30 JUMP JUMPDEST PUSH1 0x40 MLOAD DUP1 SWAP2 SUB SWAP1 LOG1 POP POP JUMP JUMPDEST PUSH1 0x0 PUSH2 0xE74 DUP4 PUSH1 0x0 ADD DUP4 PUSH20 0xFFFFFFFFFFFFFFFFFFFFFFFFFFFFFFFFFFFFFFFF AND PUSH1 0x0 SHL PUSH2 0xFB4 JUMP JUMPDEST SWAP1 POP SWAP3 SWAP2 POP POP JUMP JUMPDEST PUSH2 0xE90 DUP2 PUSH1 0x0 PUSH2 0x1024 SWAP1 SWAP2 SWAP1 PUSH4 0xFFFFFFFF AND JUMP JUMPDEST POP DUP1 PUSH20 0xFFFFFFFFFFFFFFFFFFFFFFFFFFFFFFFFFFFFFFFF AND PUSH32 0xA3B62BC36326052D97EA62D63C3D60308ED4C3EA8AC079DD8499F1E9C4F80C0F PUSH1 0x40 MLOAD PUSH1 0x40 MLOAD DUP1 SWAP2 SUB SWAP1 LOG2 POP JUMP JUMPDEST PUSH1 0x0 PUSH2 0xEFF DUP4 PUSH1 0x0 ADD DUP4 PUSH20 0xFFFFFFFFFFFFFFFFFFFFFFFFFFFFFFFFFFFFFFFF AND PUSH1 0x0 SHL PUSH2 0x1054 JUMP JUMPDEST SWAP1 POP SWAP3 SWAP2 POP POP JUMP JUMPDEST PUSH1 0x0 PUSH2 0xF15 DUP3 PUSH1 0x0 ADD PUSH2 0x1077 JUMP JUMPDEST SWAP1 POP SWAP2 SWAP1 POP JUMP JUMPDEST PUSH1 0x0 PUSH2 0xF2B DUP4 PUSH1 0x0 ADD DUP4 PUSH2 0x1088 JUMP JUMPDEST PUSH1 0x0 SHR SWAP1 POP SWAP3 SWAP2 POP POP JUMP JUMPDEST PUSH2 0xF4A DUP2 PUSH1 0x0 PUSH2 0xE4C SWAP1 SWAP2 SWAP1 PUSH4 0xFFFFFFFF AND JUMP JUMPDEST POP DUP1 PUSH20 0xFFFFFFFFFFFFFFFFFFFFFFFFFFFFFFFFFFFFFFFF AND PUSH32 0x44D6D25963F097AD14F29F06854A01F575648A1EF82F30E562CCD3889717E339 PUSH1 0x40 MLOAD PUSH1 0x40 MLOAD DUP1 SWAP2 SUB SWAP1 LOG2 POP JUMP JUMPDEST PUSH1 0x0 DUP1 DUP3 PUSH20 0xFFFFFFFFFFFFFFFFFFFFFFFFFFFFFFFFFFFFFFFF AND EXTCODESIZE GT SWAP1 POP SWAP2 SWAP1 POP JUMP JUMPDEST PUSH1 0x0 PUSH2 0xFC0 DUP4 DUP4 PUSH2 0x1054 JUMP JUMPDEST PUSH2 0x1019 JUMPI DUP3 PUSH1 0x0 ADD DUP3 SWAP1 DUP1 PUSH1 0x1 DUP2 SLOAD ADD DUP1 DUP3 SSTORE DUP1 SWAP2 POP POP PUSH1 0x1 SWAP1 SUB SWAP1 PUSH1 0x0 MSTORE PUSH1 0x20 PUSH1 0x0 KECCAK256 ADD PUSH1 0x0 SWAP1 SWAP2 SWAP1 SWAP2 SWAP1 SWAP2 POP SSTORE DUP3 PUSH1 0x0 ADD DUP1 SLOAD SWAP1 POP DUP4 PUSH1 0x1 ADD PUSH1 0x0 DUP5 DUP2 MSTORE PUSH1 0x20 ADD SWAP1 DUP2 MSTORE PUSH1 0x20 ADD PUSH1 0x0 KECCAK256 DUP2 SWAP1 SSTORE POP PUSH1 0x1 SWAP1 POP PUSH2 0x101E JUMP JUMPDEST PUSH1 0x0 SWAP1 POP JUMPDEST SWAP3 SWAP2 POP POP JUMP JUMPDEST PUSH1 0x0 PUSH2 0x104C DUP4 PUSH1 0x0 ADD DUP4 PUSH20 0xFFFFFFFFFFFFFFFFFFFFFFFFFFFFFFFFFFFFFFFF AND PUSH1 0x0 SHL PUSH2 0x10B3 JUMP JUMPDEST SWAP1 POP SWAP3 SWAP2 POP POP JUMP JUMPDEST PUSH1 0x0 DUP1 DUP4 PUSH1 0x1 ADD PUSH1 0x0 DUP5 DUP2 MSTORE PUSH1 0x20 ADD SWAP1 DUP2 MSTORE PUSH1 0x20 ADD PUSH1 0x0 KECCAK256 SLOAD EQ ISZERO SWAP1 POP SWAP3 SWAP2 POP POP JUMP JUMPDEST PUSH1 0x0 DUP2 PUSH1 0x0 ADD DUP1 SLOAD SWAP1 POP SWAP1 POP SWAP2 SWAP1 POP JUMP JUMPDEST PUSH1 0x0 DUP3 PUSH1 0x0 ADD DUP3 DUP2 SLOAD DUP2 LT PUSH2 0x10A0 JUMPI PUSH2 0x109F PUSH2 0x16EE JUMP JUMPDEST JUMPDEST SWAP1 PUSH1 0x0 MSTORE PUSH1 0x20 PUSH1 0x0 KECCAK256 ADD SLOAD SWAP1 POP SWAP3 SWAP2 POP POP JUMP JUMPDEST PUSH1 0x0 DUP1 DUP4 PUSH1 0x1 ADD PUSH1 0x0 DUP5 DUP2 MSTORE PUSH1 0x20 ADD SWAP1 DUP2 MSTORE PUSH1 0x20 ADD PUSH1 0x0 KECCAK256 SLOAD SWAP1 POP PUSH1 0x0 DUP2 EQ PUSH2 0x11BB JUMPI PUSH1 0x0 PUSH1 0x1 DUP3 PUSH2 0x10E5 SWAP2 SWAP1 PUSH2 0x18C1 JUMP JUMPDEST SWAP1 POP PUSH1 0x0 PUSH1 0x1 DUP7 PUSH1 0x0 ADD DUP1 SLOAD SWAP1 POP PUSH2 0x10FD SWAP2 SWAP1 PUSH2 0x18C1 JUMP JUMPDEST SWAP1 POP DUP2 DUP2 EQ PUSH2 0x116C JUMPI PUSH1 0x0 DUP7 PUSH1 0x0 ADD DUP3 DUP2 SLOAD DUP2 LT PUSH2 0x111E JUMPI PUSH2 0x111D PUSH2 0x16EE JUMP JUMPDEST JUMPDEST SWAP1 PUSH1 0x0 MSTORE PUSH1 0x20 PUSH1 0x0 KECCAK256 ADD SLOAD SWAP1 POP DUP1 DUP8 PUSH1 0x0 ADD DUP5 DUP2 SLOAD DUP2 LT PUSH2 0x1142 JUMPI PUSH2 0x1141 PUSH2 0x16EE JUMP JUMPDEST JUMPDEST SWAP1 PUSH1 0x0 MSTORE PUSH1 0x20 PUSH1 0x0 KECCAK256 ADD DUP2 SWAP1 SSTORE POP DUP4 DUP8 PUSH1 0x1 ADD PUSH1 0x0 DUP4 DUP2 MSTORE PUSH1 0x20 ADD SWAP1 DUP2 MSTORE PUSH1 0x20 ADD PUSH1 0x0 KECCAK256 DUP2 SWAP1 SSTORE POP POP JUMPDEST DUP6 PUSH1 0x0 ADD DUP1 SLOAD DUP1 PUSH2 0x1180 JUMPI PUSH2 0x117F PUSH2 0x1B67 JUMP JUMPDEST JUMPDEST PUSH1 0x1 SWAP1 SUB DUP2 DUP2 SWAP1 PUSH1 0x0 MSTORE PUSH1 0x20 PUSH1 0x0 KECCAK256 ADD PUSH1 0x0 SWAP1 SSTORE SWAP1 SSTORE DUP6 PUSH1 0x1 ADD PUSH1 0x0 DUP7 DUP2 MSTORE PUSH1 0x20 ADD SWAP1 DUP2 MSTORE PUSH1 0x20 ADD PUSH1 0x0 KECCAK256 PUSH1 0x0 SWAP1 SSTORE PUSH1 0x1 SWAP4 POP POP POP POP PUSH2 0x11C1 JUMP JUMPDEST PUSH1 0x0 SWAP2 POP POP JUMPDEST SWAP3 SWAP2 POP POP JUMP JUMPDEST PUSH1 0x0 PUSH1 0x40 MLOAD SWAP1 POP SWAP1 JUMP JUMPDEST PUSH1 0x0 DUP1 REVERT JUMPDEST PUSH1 0x0 DUP1 REVERT JUMPDEST PUSH1 0x0 PUSH20 0xFFFFFFFFFFFFFFFFFFFFFFFFFFFFFFFFFFFFFFFF DUP3 AND SWAP1 POP SWAP2 SWAP1 POP JUMP JUMPDEST PUSH1 0x0 PUSH2 0x1206 DUP3 PUSH2 0x11DB JUMP JUMPDEST SWAP1 POP SWAP2 SWAP1 POP JUMP JUMPDEST PUSH2 0x1216 DUP2 PUSH2 0x11FB JUMP JUMPDEST DUP2 EQ PUSH2 0x1221 JUMPI PUSH1 0x0 DUP1 REVERT JUMPDEST POP JUMP JUMPDEST PUSH1 0x0 DUP2 CALLDATALOAD SWAP1 POP PUSH2 0x1233 DUP2 PUSH2 0x120D JUMP JUMPDEST SWAP3 SWAP2 POP POP JUMP JUMPDEST PUSH1 0x0 PUSH1 0x20 DUP3 DUP5 SUB SLT ISZERO PUSH2 0x124F JUMPI PUSH2 0x124E PUSH2 0x11D1 JUMP JUMPDEST JUMPDEST PUSH1 0x0 PUSH2 0x125D DUP5 DUP3 DUP6 ADD PUSH2 0x1224 JUMP JUMPDEST SWAP2 POP POP SWAP3 SWAP2 POP POP JUMP JUMPDEST PUSH1 0x0 DUP2 ISZERO ISZERO SWAP1 POP SWAP2 SWAP1 POP JUMP JUMPDEST PUSH2 0x127B DUP2 PUSH2 0x1266 JUMP JUMPDEST DUP3 MSTORE POP POP JUMP JUMPDEST PUSH1 0x0 PUSH1 0x20 DUP3 ADD SWAP1 POP PUSH2 0x1296 PUSH1 0x0 DUP4 ADD DUP5 PUSH2 0x1272 JUMP JUMPDEST SWAP3 SWAP2 POP POP JUMP JUMPDEST PUSH1 0x0 DUP1 REVERT JUMPDEST PUSH1 0x0 PUSH1 0x1F NOT PUSH1 0x1F DUP4 ADD AND SWAP1 POP SWAP2 SWAP1 POP JUMP JUMPDEST PUSH32 0x4E487B7100000000000000000000000000000000000000000000000000000000 PUSH1 0x0 MSTORE PUSH1 0x41 PUSH1 0x4 MSTORE PUSH1 0x24 PUSH1 0x0 REVERT JUMPDEST PUSH2 0x12EA DUP3 PUSH2 0x12A1 JUMP JUMPDEST DUP2 ADD DUP2 DUP2 LT PUSH8 0xFFFFFFFFFFFFFFFF DUP3 GT OR ISZERO PUSH2 0x1309 JUMPI PUSH2 0x1308 PUSH2 0x12B2 JUMP JUMPDEST JUMPDEST DUP1 PUSH1 0x40 MSTORE POP POP POP JUMP JUMPDEST PUSH1 0x0 PUSH2 0x131C PUSH2 0x11C7 JUMP JUMPDEST SWAP1 POP PUSH2 0x1328 DUP3 DUP3 PUSH2 0x12E1 JUMP JUMPDEST SWAP2 SWAP1 POP JUMP JUMPDEST PUSH1 0x0 PUSH8 0xFFFFFFFFFFFFFFFF DUP3 GT ISZERO PUSH2 0x1348 JUMPI PUSH2 0x1347 PUSH2 0x12B2 JUMP JUMPDEST JUMPDEST PUSH1 0x20 DUP3 MUL SWAP1 POP PUSH1 0x20 DUP2 ADD SWAP1 POP SWAP2 SWAP1 POP JUMP JUMPDEST PUSH1 0x0 DUP1 REVERT JUMPDEST PUSH1 0x0 PUSH2 0x1371 PUSH2 0x136C DUP5 PUSH2 0x132D JUMP JUMPDEST PUSH2 0x1312 JUMP JUMPDEST SWAP1 POP DUP1 DUP4 DUP3 MSTORE PUSH1 0x20 DUP3 ADD SWAP1 POP PUSH1 0x20 DUP5 MUL DUP4 ADD DUP6 DUP2 GT ISZERO PUSH2 0x1394 JUMPI PUSH2 0x1393 PUSH2 0x1359 JUMP JUMPDEST JUMPDEST DUP4 JUMPDEST DUP2 DUP2 LT ISZERO PUSH2 0x13BD JUMPI DUP1 PUSH2 0x13A9 DUP9 DUP3 PUSH2 0x1224 JUMP JUMPDEST DUP5 MSTORE PUSH1 0x20 DUP5 ADD SWAP4 POP POP PUSH1 0x20 DUP2 ADD SWAP1 POP PUSH2 0x1396 JUMP JUMPDEST POP POP POP SWAP4 SWAP3 POP POP POP JUMP JUMPDEST PUSH1 0x0 DUP3 PUSH1 0x1F DUP4 ADD SLT PUSH2 0x13DC JUMPI PUSH2 0x13DB PUSH2 0x129C JUMP JUMPDEST JUMPDEST DUP2 CALLDATALOAD PUSH2 0x13EC DUP5 DUP3 PUSH1 0x20 DUP7 ADD PUSH2 0x135E JUMP JUMPDEST SWAP2 POP POP SWAP3 SWAP2 POP POP JUMP JUMPDEST PUSH1 0x0 PUSH1 0x20 DUP3 DUP5 SUB SLT ISZERO PUSH2 0x140B JUMPI PUSH2 0x140A PUSH2 0x11D1 JUMP JUMPDEST JUMPDEST PUSH1 0x0 DUP3 ADD CALLDATALOAD PUSH8 0xFFFFFFFFFFFFFFFF DUP2 GT ISZERO PUSH2 0x1429 JUMPI PUSH2 0x1428 PUSH2 0x11D6 JUMP JUMPDEST JUMPDEST PUSH2 0x1435 DUP5 DUP3 DUP6 ADD PUSH2 0x13C7 JUMP JUMPDEST SWAP2 POP POP SWAP3 SWAP2 POP POP JUMP JUMPDEST PUSH2 0x1447 DUP2 PUSH2 0x11FB JUMP JUMPDEST DUP3 MSTORE POP POP JUMP JUMPDEST PUSH1 0x0 PUSH1 0x20 DUP3 ADD SWAP1 POP PUSH2 0x1462 PUSH1 0x0 DUP4 ADD DUP5 PUSH2 0x143E JUMP JUMPDEST SWAP3 SWAP2 POP POP JUMP JUMPDEST PUSH1 0x0 DUP2 MLOAD SWAP1 POP SWAP2 SWAP1 POP JUMP JUMPDEST PUSH1 0x0 DUP3 DUP3 MSTORE PUSH1 0x20 DUP3 ADD SWAP1 POP SWAP3 SWAP2 POP POP JUMP JUMPDEST PUSH1 0x0 DUP2 SWAP1 POP PUSH1 0x20 DUP3 ADD SWAP1 POP SWAP2 SWAP1 POP JUMP JUMPDEST PUSH2 0x149D DUP2 PUSH2 0x11FB JUMP JUMPDEST DUP3 MSTORE POP POP JUMP JUMPDEST PUSH1 0x0 PUSH2 0x14AF DUP4 DUP4 PUSH2 0x1494 JUMP JUMPDEST PUSH1 0x20 DUP4 ADD SWAP1 POP SWAP3 SWAP2 POP POP JUMP JUMPDEST PUSH1 0x0 PUSH1 0x20 DUP3 ADD SWAP1 POP SWAP2 SWAP1 POP JUMP JUMPDEST PUSH1 0x0 PUSH2 0x14D3 DUP3 PUSH2 0x1468 JUMP JUMPDEST PUSH2 0x14DD DUP2 DUP6 PUSH2 0x1473 JUMP JUMPDEST SWAP4 POP PUSH2 0x14E8 DUP4 PUSH2 0x1484 JUMP JUMPDEST DUP1 PUSH1 0x0 JUMPDEST DUP4 DUP2 LT ISZERO PUSH2 0x1519 JUMPI DUP2 MLOAD PUSH2 0x1500 DUP9 DUP3 PUSH2 0x14A3 JUMP JUMPDEST SWAP8 POP PUSH2 0x150B DUP4 PUSH2 0x14BB JUMP JUMPDEST SWAP3 POP POP PUSH1 0x1 DUP2 ADD SWAP1 POP PUSH2 0x14EC JUMP JUMPDEST POP DUP6 SWAP4 POP POP POP POP SWAP3 SWAP2 POP POP JUMP JUMPDEST PUSH1 0x0 PUSH1 0x20 DUP3 ADD SWAP1 POP DUP2 DUP2 SUB PUSH1 0x0 DUP4 ADD MSTORE PUSH2 0x1540 DUP2 DUP5 PUSH2 0x14C8 JUMP JUMPDEST SWAP1 POP SWAP3 SWAP2 POP POP JUMP JUMPDEST PUSH1 0x0 DUP2 SWAP1 POP SWAP2 SWAP1 POP JUMP JUMPDEST PUSH2 0x155B DUP2 PUSH2 0x1548 JUMP JUMPDEST DUP2 EQ PUSH2 0x1566 JUMPI PUSH1 0x0 DUP1 REVERT JUMPDEST POP JUMP JUMPDEST PUSH1 0x0 DUP2 CALLDATALOAD SWAP1 POP PUSH2 0x1578 DUP2 PUSH2 0x1552 JUMP JUMPDEST SWAP3 SWAP2 POP POP JUMP JUMPDEST PUSH1 0x0 PUSH1 0x20 DUP3 DUP5 SUB SLT ISZERO PUSH2 0x1594 JUMPI PUSH2 0x1593 PUSH2 0x11D1 JUMP JUMPDEST JUMPDEST PUSH1 0x0 PUSH2 0x15A2 DUP5 DUP3 DUP6 ADD PUSH2 0x1569 JUMP JUMPDEST SWAP2 POP POP SWAP3 SWAP2 POP POP JUMP JUMPDEST PUSH1 0x0 DUP2 SWAP1 POP SWAP2 SWAP1 POP JUMP JUMPDEST PUSH2 0x15BE DUP2 PUSH2 0x15AB JUMP JUMPDEST DUP3 MSTORE POP POP JUMP JUMPDEST PUSH1 0x0 PUSH1 0x20 DUP3 ADD SWAP1 POP PUSH2 0x15D9 PUSH1 0x0 DUP4 ADD DUP5 PUSH2 0x15B5 JUMP JUMPDEST SWAP3 SWAP2 POP POP JUMP JUMPDEST PUSH2 0x15E8 DUP2 PUSH2 0x15AB JUMP JUMPDEST DUP2 EQ PUSH2 0x15F3 JUMPI PUSH1 0x0 DUP1 REVERT JUMPDEST POP JUMP JUMPDEST PUSH1 0x0 DUP2 CALLDATALOAD SWAP1 POP PUSH2 0x1605 DUP2 PUSH2 0x15DF JUMP JUMPDEST SWAP3 SWAP2 POP POP JUMP JUMPDEST PUSH1 0x0 DUP1 PUSH1 0x40 DUP4 DUP6 SUB SLT ISZERO PUSH2 0x1622 JUMPI PUSH2 0x1621 PUSH2 0x11D1 JUMP JUMPDEST JUMPDEST PUSH1 0x0 PUSH2 0x1630 DUP6 DUP3 DUP7 ADD PUSH2 0x1569 JUMP JUMPDEST SWAP3 POP POP PUSH1 0x20 PUSH2 0x1641 DUP6 DUP3 DUP7 ADD PUSH2 0x15F6 JUMP JUMPDEST SWAP2 POP POP SWAP3 POP SWAP3 SWAP1 POP JUMP JUMPDEST PUSH1 0x0 DUP3 DUP3 MSTORE PUSH1 0x20 DUP3 ADD SWAP1 POP SWAP3 SWAP2 POP POP JUMP JUMPDEST PUSH32 0x41646D696E526F6C653A2063616C6C657220646F6573206E6F74206861766520 PUSH1 0x0 DUP3 ADD MSTORE PUSH32 0x7468652041646D696E20726F6C65000000000000000000000000000000000000 PUSH1 0x20 DUP3 ADD MSTORE POP JUMP JUMPDEST PUSH1 0x0 PUSH2 0x16B8 PUSH1 0x2E DUP4 PUSH2 0x164B JUMP JUMPDEST SWAP2 POP PUSH2 0x16C3 DUP3 PUSH2 0x165C JUMP JUMPDEST PUSH1 0x40 DUP3 ADD SWAP1 POP SWAP2 SWAP1 POP JUMP JUMPDEST PUSH1 0x0 PUSH1 0x20 DUP3 ADD SWAP1 POP DUP2 DUP2 SUB PUSH1 0x0 DUP4 ADD MSTORE PUSH2 0x16E7 DUP2 PUSH2 0x16AB JUMP JUMPDEST SWAP1 POP SWAP2 SWAP1 POP JUMP JUMPDEST PUSH32 0x4E487B7100000000000000000000000000000000000000000000000000000000 PUSH1 0x0 MSTORE PUSH1 0x32 PUSH1 0x4 MSTORE PUSH1 0x24 PUSH1 0x0 REVERT JUMPDEST PUSH32 0x4E487B7100000000000000000000000000000000000000000000000000000000 PUSH1 0x0 MSTORE PUSH1 0x11 PUSH1 0x4 MSTORE PUSH1 0x24 PUSH1 0x0 REVERT JUMPDEST PUSH1 0x0 PUSH2 0x1757 DUP3 PUSH2 0x15AB JUMP JUMPDEST SWAP2 POP PUSH32 0xFFFFFFFFFFFFFFFFFFFFFFFFFFFFFFFFFFFFFFFFFFFFFFFFFFFFFFFFFFFFFFFF DUP3 SUB PUSH2 0x1789 JUMPI PUSH2 0x1788 PUSH2 0x171D JUMP JUMPDEST JUMPDEST PUSH1 0x1 DUP3 ADD SWAP1 POP SWAP2 SWAP1 POP JUMP JUMPDEST PUSH2 0x179D DUP2 PUSH2 0x1548 JUMP JUMPDEST DUP3 MSTORE POP POP JUMP JUMPDEST PUSH1 0x0 PUSH1 0x20 DUP3 ADD SWAP1 POP PUSH2 0x17B8 PUSH1 0x0 DUP4 ADD DUP5 PUSH2 0x1794 JUMP JUMPDEST SWAP3 SWAP2 POP POP JUMP JUMPDEST PUSH1 0x0 DUP2 MLOAD SWAP1 POP PUSH2 0x17CD DUP2 PUSH2 0x120D JUMP JUMPDEST SWAP3 SWAP2 POP POP JUMP JUMPDEST PUSH1 0x0 PUSH1 0x20 DUP3 DUP5 SUB SLT ISZERO PUSH2 0x17E9 JUMPI PUSH2 0x17E8 PUSH2 0x11D1 JUMP JUMPDEST JUMPDEST PUSH1 0x0 PUSH2 0x17F7 DUP5 DUP3 DUP6 ADD PUSH2 0x17BE JUMP JUMPDEST SWAP2 POP POP SWAP3 SWAP2 POP POP JUMP JUMPDEST PUSH1 0x0 DUP2 MLOAD SWAP1 POP PUSH2 0x180F DUP2 PUSH2 0x15DF JUMP JUMPDEST SWAP3 SWAP2 POP POP JUMP JUMPDEST PUSH1 0x0 PUSH1 0x20 DUP3 DUP5 SUB SLT ISZERO PUSH2 0x182B JUMPI PUSH2 0x182A PUSH2 0x11D1 JUMP JUMPDEST JUMPDEST PUSH1 0x0 PUSH2 0x1839 DUP5 DUP3 DUP6 ADD PUSH2 0x1800 JUMP JUMPDEST SWAP2 POP POP SWAP3 SWAP2 POP POP JUMP JUMPDEST PUSH1 0x0 PUSH1 0x40 DUP3 ADD SWAP1 POP PUSH2 0x1857 PUSH1 0x0 DUP4 ADD DUP6 PUSH2 0x1794 JUMP JUMPDEST PUSH2 0x1864 PUSH1 0x20 DUP4 ADD DUP5 PUSH2 0x143E JUMP JUMPDEST SWAP4 SWAP3 POP POP POP JUMP JUMPDEST PUSH1 0x0 PUSH2 0x1876 DUP3 PUSH2 0x15AB JUMP JUMPDEST SWAP2 POP PUSH2 0x1881 DUP4 PUSH2 0x15AB JUMP JUMPDEST SWAP3 POP DUP3 PUSH32 0xFFFFFFFFFFFFFFFFFFFFFFFFFFFFFFFFFFFFFFFFFFFFFFFFFFFFFFFFFFFFFFFF SUB DUP3 GT ISZERO PUSH2 0x18B6 JUMPI PUSH2 0x18B5 PUSH2 0x171D JUMP JUMPDEST JUMPDEST DUP3 DUP3 ADD SWAP1 POP SWAP3 SWAP2 POP POP JUMP JUMPDEST PUSH1 0x0 PUSH2 0x18CC DUP3 PUSH2 0x15AB JUMP JUMPDEST SWAP2 POP PUSH2 0x18D7 DUP4 PUSH2 0x15AB JUMP JUMPDEST SWAP3 POP DUP3 DUP3 LT ISZERO PUSH2 0x18EA JUMPI PUSH2 0x18E9 PUSH2 0x171D JUMP JUMPDEST JUMPDEST DUP3 DUP3 SUB SWAP1 POP SWAP3 SWAP2 POP POP JUMP JUMPDEST PUSH1 0x0 PUSH2 0x1900 DUP3 PUSH2 0x15AB JUMP JUMPDEST SWAP2 POP PUSH2 0x190B DUP4 PUSH2 0x15AB JUMP JUMPDEST SWAP3 POP DUP2 PUSH32 0xFFFFFFFFFFFFFFFFFFFFFFFFFFFFFFFFFFFFFFFFFFFFFFFFFFFFFFFFFFFFFFFF DIV DUP4 GT DUP3 ISZERO ISZERO AND ISZERO PUSH2 0x1944 JUMPI PUSH2 0x1943 PUSH2 0x171D JUMP JUMPDEST JUMPDEST DUP3 DUP3 MUL SWAP1 POP SWAP3 SWAP2 POP POP JUMP JUMPDEST PUSH32 0x4E487B7100000000000000000000000000000000000000000000000000000000 PUSH1 0x0 MSTORE PUSH1 0x12 PUSH1 0x4 MSTORE PUSH1 0x24 PUSH1 0x0 REVERT JUMPDEST PUSH1 0x0 PUSH2 0x1989 DUP3 PUSH2 0x15AB JUMP JUMPDEST SWAP2 POP PUSH2 0x1994 DUP4 PUSH2 0x15AB JUMP JUMPDEST SWAP3 POP DUP3 PUSH2 0x19A4 JUMPI PUSH2 0x19A3 PUSH2 0x194F JUMP JUMPDEST JUMPDEST DUP3 DUP3 DIV SWAP1 POP SWAP3 SWAP2 POP POP JUMP JUMPDEST PUSH1 0x0 PUSH1 0x40 DUP3 ADD SWAP1 POP PUSH2 0x19C4 PUSH1 0x0 DUP4 ADD DUP6 PUSH2 0x143E JUMP JUMPDEST PUSH2 0x19D1 PUSH1 0x20 DUP4 ADD DUP5 PUSH2 0x15B5 JUMP JUMPDEST SWAP4 SWAP3 POP POP POP JUMP JUMPDEST PUSH2 0x19E1 DUP2 PUSH2 0x1266 JUMP JUMPDEST DUP2 EQ PUSH2 0x19EC JUMPI PUSH1 0x0 DUP1 REVERT JUMPDEST POP JUMP JUMPDEST PUSH1 0x0 DUP2 MLOAD SWAP1 POP PUSH2 0x19FE DUP2 PUSH2 0x19D8 JUMP JUMPDEST SWAP3 SWAP2 POP POP JUMP JUMPDEST PUSH1 0x0 PUSH1 0x20 DUP3 DUP5 SUB SLT ISZERO PUSH2 0x1A1A JUMPI PUSH2 0x1A19 PUSH2 0x11D1 JUMP JUMPDEST JUMPDEST PUSH1 0x0 PUSH2 0x1A28 DUP5 DUP3 DUP6 ADD PUSH2 0x19EF JUMP JUMPDEST SWAP2 POP POP SWAP3 SWAP2 POP POP JUMP JUMPDEST PUSH32 0x496E697469616C697A61626C653A20636F6E747261637420697320616C726561 PUSH1 0x0 DUP3 ADD MSTORE PUSH32 0x647920696E697469616C697A6564000000000000000000000000000000000000 PUSH1 0x20 DUP3 ADD MSTORE POP JUMP JUMPDEST PUSH1 0x0 PUSH2 0x1A8D PUSH1 0x2E DUP4 PUSH2 0x164B JUMP JUMPDEST SWAP2 POP PUSH2 0x1A98 DUP3 PUSH2 0x1A31 JUMP JUMPDEST PUSH1 0x40 DUP3 ADD SWAP1 POP SWAP2 SWAP1 POP JUMP JUMPDEST PUSH1 0x0 PUSH1 0x20 DUP3 ADD SWAP1 POP DUP2 DUP2 SUB PUSH1 0x0 DUP4 ADD MSTORE PUSH2 0x1ABC DUP2 PUSH2 0x1A80 JUMP JUMPDEST SWAP1 POP SWAP2 SWAP1 POP JUMP JUMPDEST PUSH1 0x0 DUP2 SWAP1 POP SWAP2 SWAP1 POP JUMP JUMPDEST PUSH1 0x0 PUSH1 0xFF DUP3 AND SWAP1 POP SWAP2 SWAP1 POP JUMP JUMPDEST PUSH1 0x0 DUP2 SWAP1 POP SWAP2 SWAP1 POP JUMP JUMPDEST PUSH1 0x0 PUSH2 0x1AFF PUSH2 0x1AFA PUSH2 0x1AF5 DUP5 PUSH2 0x1AC3 JUMP JUMPDEST PUSH2 0x1ADA JUMP JUMPDEST PUSH2 0x1ACD JUMP JUMPDEST SWAP1 POP SWAP2 SWAP1 POP JUMP JUMPDEST PUSH2 0x1B0F DUP2 PUSH2 0x1AE4 JUMP JUMPDEST DUP3 MSTORE POP POP JUMP JUMPDEST PUSH1 0x0 PUSH1 0x20 DUP3 ADD SWAP1 POP PUSH2 0x1B2A PUSH1 0x0 DUP4 ADD DUP5 PUSH2 0x1B06 JUMP JUMPDEST SWAP3 SWAP2 POP POP JUMP JUMPDEST PUSH1 0x0 PUSH1 0x60 DUP3 ADD SWAP1 POP PUSH2 0x1B45 PUSH1 0x0 DUP4 ADD DUP7 PUSH2 0x1794 JUMP JUMPDEST PUSH2 0x1B52 PUSH1 0x20 DUP4 ADD DUP6 PUSH2 0x15B5 JUMP JUMPDEST PUSH2 0x1B5F PUSH1 0x40 DUP4 ADD DUP5 PUSH2 0x15B5 JUMP JUMPDEST SWAP5 SWAP4 POP POP POP POP JUMP JUMPDEST PUSH32 0x4E487B7100000000000000000000000000000000000000000000000000000000 PUSH1 0x0 MSTORE PUSH1 0x31 PUSH1 0x4 MSTORE PUSH1 0x24 PUSH1 0x0 REVERT INVALID LOG2 PUSH5 0x6970667358 0x22 SLT KECCAK256 SDIV SWAP7 0x2A RETURNDATACOPY DUP10 0xD 0xE1 0xDF JUMP 0x4C SDIV 0xD4 CALLVALUE 0x49 0xEC DUP15 0xB7 DUP8 0xC4 0xCD PUSH30 0x1F6B38DB13A927BDB109E364736F6C634300080D00330000000000000000 "},"methodIdentifiers":{"addAdmin(address)":"70480275","adminSetLatestDelegate_(bytes32,uint256)":"a442945f","adminSetRewardsForSocialFunds(bytes32,uint256)":"ddb38c92","adminSetVoteAddress(address)":"836a6636","allAdmins()":"40f32be6","batchAddAdmin(address[])":"2c9ab42b","campaignSuccessRewards(bytes32)":"cdcbba7b","initialize()":"8129fc1c","isAdmin(address)":"24d7806c","latestDelegate(bytes32)":"7f1c4fb0","removeAdmin(address)":"1785f53c","renounceAdmin()":"8bad0c0a","rewardNode(bytes32)":"5c22ea01","rewardsForSocialFunds(bytes32)":"a2e44b04","unlock()":"a69df4b5","voteAddress()":"3d6dc928"}}}}}