{
  "_format": "hh-sol-artifact-1",
  "contractName": "CityNodeVote",
  "sourceName": "contracts/CityNodeVote.sol",
  "abi": [
    {
      "inputs": [],
      "stateMutability": "nonpayable",
      "type": "constructor"
    },
    {
      "anonymous": false,
      "inputs": [
        {
          "indexed": true,
          "internalType": "address",
          "name": "account",
          "type": "address"
        }
      ],
      "name": "AdminAdded",
      "type": "event"
    },
    {
      "anonymous": false,
      "inputs": [
        {
          "indexed": true,
          "internalType": "address",
          "name": "account",
          "type": "address"
        }
      ],
      "name": "AdminRemoved",
      "type": "event"
    },
    {
      "anonymous": false,
      "inputs": [
        {
          "indexed": false,
          "internalType": "address",
          "name": "user",
          "type": "address"
        },
        {
          "indexed": false,
          "internalType": "uint256",
          "name": "applyFee",
          "type": "uint256"
        }
      ],
      "name": "ApplyCandidateRecord",
      "type": "event"
    },
    {
      "anonymous": false,
      "inputs": [
        {
          "indexed": false,
          "internalType": "uint8",
          "name": "version",
          "type": "uint8"
        }
      ],
      "name": "Initialized",
      "type": "event"
    },
    {
      "anonymous": false,
      "inputs": [
        {
          "indexed": false,
          "internalType": "bytes32",
          "name": "cityId",
          "type": "bytes32"
        },
        {
          "indexed": false,
          "internalType": "uint256",
          "name": "latestDelegate",
          "type": "uint256"
        },
        {
          "indexed": false,
          "internalType": "uint256",
          "name": "timeStemp",
          "type": "uint256"
        }
      ],
      "name": "UpdateLatestDelegateRecord",
      "type": "event"
    },
    {
      "anonymous": false,
      "inputs": [
        {
          "indexed": false,
          "internalType": "bytes32",
          "name": "cityId",
          "type": "bytes32"
        },
        {
          "indexed": false,
          "internalType": "uint256",
          "name": "rewardsForSocialFunds",
          "type": "uint256"
        },
        {
          "indexed": false,
          "internalType": "uint256",
          "name": "timeStemp",
          "type": "uint256"
        }
      ],
      "name": "UpdateSocialFundsRecord",
      "type": "event"
    },
    {
      "anonymous": false,
      "inputs": [
        {
          "indexed": false,
          "internalType": "address",
          "name": "user",
          "type": "address"
        },
        {
          "indexed": false,
          "internalType": "address",
          "name": "candidate",
          "type": "address"
        },
        {
          "indexed": false,
          "internalType": "bytes32",
          "name": "cityId",
          "type": "bytes32"
        },
        {
          "indexed": false,
          "internalType": "uint256",
          "name": "toxNum",
          "type": "uint256"
        }
      ],
      "name": "VoteRecord",
      "type": "event"
    },
    {
      "anonymous": false,
      "inputs": [
        {
          "indexed": false,
          "internalType": "enum Events.VoteStatus",
          "name": "voteStatus",
          "type": "uint8"
        }
      ],
      "name": "VoteStatusChangeRecord",
      "type": "event"
    },
    {
      "anonymous": false,
      "inputs": [
        {
          "indexed": false,
          "internalType": "address",
          "name": "node",
          "type": "address"
        },
        {
          "indexed": false,
          "internalType": "bytes32",
          "name": "cityId",
          "type": "bytes32"
        },
        {
          "indexed": false,
          "internalType": "uint256",
          "name": "toxNum",
          "type": "uint256"
        }
      ],
      "name": "VoteSuccessRecord",
      "type": "event"
    },
    {
      "inputs": [],
      "name": "TOX",
      "outputs": [
        {
          "internalType": "address",
          "name": "",
          "type": "address"
        }
      ],
      "stateMutability": "view",
      "type": "function"
    },
    {
      "inputs": [
        {
          "internalType": "address",
          "name": "account",
          "type": "address"
        }
      ],
      "name": "addAdmin",
      "outputs": [],
      "stateMutability": "nonpayable",
      "type": "function"
    },
    {
      "inputs": [
        {
          "internalType": "address",
          "name": "globalNode",
          "type": "address"
        },
        {
          "internalType": "uint256",
          "name": "voteNumber",
          "type": "uint256"
        }
      ],
      "name": "adminAddGlobalNode",
      "outputs": [],
      "stateMutability": "nonpayable",
      "type": "function"
    },
    {
      "inputs": [
        {
          "internalType": "uint256",
          "name": "applyCityFee_",
          "type": "uint256"
        }
      ],
      "name": "adminSetApplyCityFee",
      "outputs": [],
      "stateMutability": "nonpayable",
      "type": "function"
    },
    {
      "inputs": [
        {
          "internalType": "address",
          "name": "TOX_",
          "type": "address"
        }
      ],
      "name": "adminSetTOXAddress",
      "outputs": [],
      "stateMutability": "nonpayable",
      "type": "function"
    },
    {
      "inputs": [
        {
          "internalType": "enum Events.VoteStatus",
          "name": "voteStatus_",
          "type": "uint8"
        }
      ],
      "name": "adminSetVoteStatus",
      "outputs": [],
      "stateMutability": "nonpayable",
      "type": "function"
    },
    {
      "inputs": [],
      "name": "allAdmins",
      "outputs": [
        {
          "internalType": "address[]",
          "name": "admins",
          "type": "address[]"
        }
      ],
      "stateMutability": "view",
      "type": "function"
    },
    {
      "inputs": [
        {
          "internalType": "uint256",
          "name": "",
          "type": "uint256"
        }
      ],
      "name": "allCityNode",
      "outputs": [
        {
          "internalType": "address",
          "name": "",
          "type": "address"
        }
      ],
      "stateMutability": "view",
      "type": "function"
    },
    {
      "inputs": [
        {
          "internalType": "bytes32",
          "name": "cityId",
          "type": "bytes32"
        },
        {
          "internalType": "uint256",
          "name": "controlRate",
          "type": "uint256"
        }
      ],
      "name": "applyCityCandidate",
      "outputs": [],
      "stateMutability": "nonpayable",
      "type": "function"
    },
    {
      "inputs": [],
      "name": "applyCityFee",
      "outputs": [
        {
          "internalType": "uint256",
          "name": "",
          "type": "uint256"
        }
      ],
      "stateMutability": "view",
      "type": "function"
    },
    {
      "inputs": [
        {
          "internalType": "address[]",
          "name": "amounts",
          "type": "address[]"
        }
      ],
      "name": "batchAddAdmin",
      "outputs": [],
      "stateMutability": "nonpayable",
      "type": "function"
    },
    {
      "inputs": [
        {
          "internalType": "bytes32",
          "name": "",
          "type": "bytes32"
        },
        {
          "internalType": "address",
          "name": "",
          "type": "address"
        }
      ],
      "name": "candidateCount",
      "outputs": [
        {
          "internalType": "uint256",
          "name": "",
          "type": "uint256"
        }
      ],
      "stateMutability": "view",
      "type": "function"
    },
    {
      "inputs": [
        {
          "internalType": "bytes32",
          "name": "",
          "type": "bytes32"
        }
      ],
      "name": "cityApplyFee",
      "outputs": [
        {
          "internalType": "uint256",
          "name": "",
          "type": "uint256"
        }
      ],
      "stateMutability": "view",
      "type": "function"
    },
    {
      "inputs": [
        {
          "internalType": "bytes32",
          "name": "",
          "type": "bytes32"
        },
        {
          "internalType": "uint256",
          "name": "",
          "type": "uint256"
        }
      ],
      "name": "cityCandidate",
      "outputs": [
        {
          "internalType": "address",
          "name": "",
          "type": "address"
        }
      ],
      "stateMutability": "view",
      "type": "function"
    },
    {
      "inputs": [
        {
          "internalType": "bytes32",
          "name": "",
          "type": "bytes32"
        }
      ],
      "name": "cityNode",
      "outputs": [
        {
          "internalType": "address",
          "name": "",
          "type": "address"
        }
      ],
      "stateMutability": "view",
      "type": "function"
    },
    {
      "inputs": [
        {
          "internalType": "address",
          "name": "",
          "type": "address"
        }
      ],
      "name": "cityNodeControlRate",
      "outputs": [
        {
          "internalType": "uint256",
          "name": "",
          "type": "uint256"
        }
      ],
      "stateMutability": "view",
      "type": "function"
    },
    {
      "inputs": [
        {
          "internalType": "bytes32",
          "name": "cityId",
          "type": "bytes32"
        }
      ],
      "name": "countGlobalNodeVoteResult",
      "outputs": [
        {
          "internalType": "address",
          "name": "",
          "type": "address"
        }
      ],
      "stateMutability": "nonpayable",
      "type": "function"
    },
    {
      "inputs": [
        {
          "internalType": "bytes32",
          "name": "cityId",
          "type": "bytes32"
        }
      ],
      "name": "countVoteResult",
      "outputs": [
        {
          "internalType": "address",
          "name": "",
          "type": "address"
        }
      ],
      "stateMutability": "nonpayable",
      "type": "function"
    },
    {
      "inputs": [
        {
          "internalType": "address",
          "name": "global",
          "type": "address"
        },
        {
          "internalType": "bytes32",
          "name": "cityId",
          "type": "bytes32"
        },
        {
          "internalType": "uint256",
          "name": "controlRate",
          "type": "uint256"
        }
      ],
      "name": "globalNodeApplyCityNode",
      "outputs": [],
      "stateMutability": "nonpayable",
      "type": "function"
    },
    {
      "inputs": [
        {
          "internalType": "address",
          "name": "",
          "type": "address"
        }
      ],
      "name": "globalNodeCandidateCount",
      "outputs": [
        {
          "internalType": "uint256",
          "name": "",
          "type": "uint256"
        }
      ],
      "stateMutability": "view",
      "type": "function"
    },
    {
      "inputs": [
        {
          "internalType": "bytes32",
          "name": "",
          "type": "bytes32"
        },
        {
          "internalType": "uint256",
          "name": "",
          "type": "uint256"
        }
      ],
      "name": "globalNodeCityCandidate",
      "outputs": [
        {
          "internalType": "address",
          "name": "",
          "type": "address"
        }
      ],
      "stateMutability": "view",
      "type": "function"
    },
    {
      "inputs": [],
      "name": "initialize",
      "outputs": [],
      "stateMutability": "nonpayable",
      "type": "function"
    },
    {
      "inputs": [
        {
          "internalType": "address",
          "name": "account",
          "type": "address"
        }
      ],
      "name": "isAdmin",
      "outputs": [
        {
          "internalType": "bool",
          "name": "",
          "type": "bool"
        }
      ],
      "stateMutability": "view",
      "type": "function"
    },
    {
      "inputs": [
        {
          "internalType": "address",
          "name": "account",
          "type": "address"
        }
      ],
      "name": "removeAdmin",
      "outputs": [],
      "stateMutability": "nonpayable",
      "type": "function"
    },
    {
      "inputs": [],
      "name": "renounceAdmin",
      "outputs": [],
      "stateMutability": "nonpayable",
      "type": "function"
    },
    {
      "inputs": [
        {
          "internalType": "address",
          "name": "candidate",
          "type": "address"
        },
        {
          "internalType": "bytes32",
          "name": "cityId",
          "type": "bytes32"
        }
      ],
      "name": "revokeVoting",
      "outputs": [],
      "stateMutability": "nonpayable",
      "type": "function"
    },
    {
      "inputs": [
        {
          "internalType": "bytes32",
          "name": "",
          "type": "bytes32"
        },
        {
          "internalType": "address",
          "name": "",
          "type": "address"
        },
        {
          "internalType": "address",
          "name": "",
          "type": "address"
        }
      ],
      "name": "userVoteRecord",
      "outputs": [
        {
          "internalType": "uint256",
          "name": "",
          "type": "uint256"
        }
      ],
      "stateMutability": "view",
      "type": "function"
    },
    {
      "inputs": [
        {
          "internalType": "address",
          "name": "candidate",
          "type": "address"
        },
        {
          "internalType": "bytes32",
          "name": "cityId",
          "type": "bytes32"
        },
        {
          "internalType": "uint256",
          "name": "toxNum",
          "type": "uint256"
        }
      ],
      "name": "vote",
      "outputs": [],
      "stateMutability": "nonpayable",
      "type": "function"
    },
    {
      "inputs": [],
      "name": "voteStatus",
      "outputs": [
        {
          "internalType": "enum Events.VoteStatus",
          "name": "",
          "type": "uint8"
        }
      ],
      "stateMutability": "view",
      "type": "function"
    }
  ],
  "bytecode": "0x608060405269021e19e0c9bab24000006003553480156200001f57600080fd5b5062000031336200003760201b60201c565b6200016e565b620000528160006200009960201b620026041790919060201c565b508073ffffffffffffffffffffffffffffffffffffffff167f44d6d25963f097ad14f29f06854a01f575648a1ef82f30e562ccd3889717e33960405160405180910390a250565b6000620000c9836000018373ffffffffffffffffffffffffffffffffffffffff1660001b620000d160201b60201c565b905092915050565b6000620000e583836200014b60201b60201c565b6200014057826000018290806001815401808255809150506001900390600052602060002001600090919091909150558260000180549050836001016000848152602001908152602001600020819055506001905062000145565b600090505b92915050565b600080836001016000848152602001908152602001600020541415905092915050565b6137bf806200017e6000396000f3fe608060405234801561001057600080fd5b50600436106101cf5760003560e01c80638129fc1c11610104578063bf17a76a116100a2578063ec4408d611610071578063ec4408d614610550578063ee18548d1461056c578063f8d3747a1461059c578063fc0fc220146105b8576101cf565b8063bf17a76a146104b6578063c4b6c381146104d2578063c69ad4a9146104f0578063e7069dea14610520576101cf565b8063a1204f87116100de578063a1204f8714610408578063a2410f3f14610438578063b29e59a914610468578063b86592b614610498576101cf565b80638129fc1c146103d8578063812f100a146103e25780638bad0c0a146103fe576101cf565b806332de0a9a1161017157806355e8426c1161014b57806355e8426c14610352578063704802751461038257806379d4bfb71461039e5780637ae6ee32146103ba576101cf565b806332de0a9a146102d457806340f32be6146103045780634b8f281c14610322576101cf565b806324d7806c116101ad57806324d7806c1461023c5780632553804c1461026c5780632c9ab42b1461029c57806330cee00a146102b8576101cf565b8063036c1009146101d4578063156e5fca146101f05780631785f53c14610220575b600080fd5b6101ee60048036038101906101e991906129f1565b6105d4565b005b61020a60048036038101906102059190612a8a565b61065f565b6040516102179190612ad9565b60405180910390f35b61023a600480360381019061023591906129f1565b6106ad565b005b610256600480360381019061025191906129f1565b610701565b6040516102639190612b0f565b60405180910390f35b61028660048036038101906102819190612a8a565b61071e565b6040516102939190612ad9565b60405180910390f35b6102b660048036038101906102b19190612c83565b61076c565b005b6102d260048036038101906102cd9190612ccc565b6107fa565b005b6102ee60048036038101906102e99190612cf9565b61084c565b6040516102fb9190612ad9565b60405180910390f35b61030c610f31565b6040516103199190612de4565b60405180910390f35b61033c60048036038101906103379190612cf9565b611013565b6040516103499190612ad9565b60405180910390f35b61036c60048036038101906103679190612cf9565b6116c5565b6040516103799190612e15565b60405180910390f35b61039c600480360381019061039791906129f1565b6116dd565b005b6103b860048036038101906103b39190612a8a565b611731565b005b6103c26119db565b6040516103cf9190612ea7565b60405180910390f35b6103e06119ee565b005b6103fc60048036038101906103f79190612ec2565b611b34565b005b610406611e1d565b005b610422600480360381019061041d91906129f1565b611e28565b60405161042f9190612e15565b60405180910390f35b610452600480360381019061044d9190612f02565b611e40565b60405161045f9190612e15565b60405180910390f35b610482600480360381019061047d91906129f1565b611e65565b60405161048f9190612e15565b60405180910390f35b6104a0611e7d565b6040516104ad9190612e15565b60405180910390f35b6104d060048036038101906104cb9190612f42565b611e83565b005b6104da612038565b6040516104e79190612ad9565b60405180910390f35b61050a60048036038101906105059190612ccc565b61205c565b6040516105179190612ad9565b60405180910390f35b61053a60048036038101906105359190612cf9565b61209b565b6040516105479190612ad9565b60405180910390f35b61056a60048036038101906105659190612f42565b6120ce565b005b61058660048036038101906105819190612f95565b612414565b6040516105939190612e15565b60405180910390f35b6105b660048036038101906105b1919061300d565b612446565b005b6105d260048036038101906105cd919061303a565b6124f2565b005b6105dd33610701565b61061c576040517f08c379a0000000000000000000000000000000000000000000000000000000008152600401610613906130fd565b60405180910390fd5b806002806101000a81548173ffffffffffffffffffffffffffffffffffffffff021916908373ffffffffffffffffffffffffffffffffffffffff16021790555050565b6009602052816000526040600020818154811061067b57600080fd5b906000526020600020016000915091509054906101000a900473ffffffffffffffffffffffffffffffffffffffff1681565b6106b633610701565b6106f5576040517f08c379a00000000000000000000000000000000000000000000000000000000081526004016106ec906130fd565b60405180910390fd5b6106fe81612634565b50565b600061071782600061268f90919063ffffffff16565b9050919050565b6008602052816000526040600020818154811061073a57600080fd5b906000526020600020016000915091509054906101000a900473ffffffffffffffffffffffffffffffffffffffff1681565b61077533610701565b6107b4576040517f08c379a00000000000000000000000000000000000000000000000000000000081526004016107ab906130fd565b60405180910390fd5b60005b81518110156107f6576107e38282815181106107d6576107d561311d565b5b60200260200101516116dd565b80806107ee9061317b565b9150506107b7565b5050565b61080333610701565b610842576040517f08c379a0000000000000000000000000000000000000000000000000000000008152600401610839906130fd565b60405180910390fd5b8060038190555050565b600061085733610701565b610896576040517f08c379a000000000000000000000000000000000000000000000000000000000815260040161088d906130fd565b60405180910390fd5b600460068111156108aa576108a9612e30565b5b600460009054906101000a900460ff1660068111156108cc576108cb612e30565b5b1461090c576040517f08c379a00000000000000000000000000000000000000000000000000000000081526004016109039061320f565b60405180910390fd5b60006008600084815260200190815260200160002090506000818054905003610939576000915050610f2c565b600181805490500361098c57806001815481106109595761095861311d565b5b9060005260206000200160009054906101000a900473ffffffffffffffffffffffffffffffffffffffff16915050610f2c565b6000806000600190505b8380549050811015610c635760005b600185805490506109b6919061322f565b811015610c4f57600760008881526020019081526020016000206000866001846109e09190613263565b815481106109f1576109f061311d565b5b9060005260206000200160009054906101000a900473ffffffffffffffffffffffffffffffffffffffff1673ffffffffffffffffffffffffffffffffffffffff1673ffffffffffffffffffffffffffffffffffffffff16815260200190815260200160002054600760008981526020019081526020016000206000878481548110610a7f57610a7e61311d565b5b9060005260206000200160009054906101000a900473ffffffffffffffffffffffffffffffffffffffff1673ffffffffffffffffffffffffffffffffffffffff1673ffffffffffffffffffffffffffffffffffffffff168152602001908152602001600020541115610c3c5784600182610af99190613263565b81548110610b0a57610b0961311d565b5b9060005260206000200160009054906101000a900473ffffffffffffffffffffffffffffffffffffffff169350848181548110610b4a57610b4961311d565b5b9060005260206000200160009054906101000a900473ffffffffffffffffffffffffffffffffffffffff1692508285600183610b869190613263565b81548110610b9757610b9661311d565b5b9060005260206000200160006101000a81548173ffffffffffffffffffffffffffffffffffffffff021916908373ffffffffffffffffffffffffffffffffffffffff16021790555083858281548110610bf357610bf261311d565b5b9060005260206000200160006101000a81548173ffffffffffffffffffffffffffffffffffffffff021916908373ffffffffffffffffffffffffffffffffffffffff1602179055505b8080610c479061317b565b9150506109a5565b508080610c5b9061317b565b915050610996565b50600c8360018580549050610c78919061322f565b81548110610c8957610c8861311d565b5b9060005260206000200160009054906101000a900473ffffffffffffffffffffffffffffffffffffffff169080600181540180825580915050600190039060005260206000200160009091909190916101000a81548173ffffffffffffffffffffffffffffffffffffffff021916908373ffffffffffffffffffffffffffffffffffffffff1602179055508260018480549050610d26919061322f565b81548110610d3757610d3661311d565b5b9060005260206000200160009054906101000a900473ffffffffffffffffffffffffffffffffffffffff16600d600087815260200190815260200160002060006101000a81548173ffffffffffffffffffffffffffffffffffffffff021916908373ffffffffffffffffffffffffffffffffffffffff1602179055507f3db5550c334486b765a417eaeb4b55623e6a910ff82d20b96e8bc0b0ac25ae368360018580549050610de6919061322f565b81548110610df757610df661311d565b5b9060005260206000200160009054906101000a900473ffffffffffffffffffffffffffffffffffffffff16866007600089815260200190815260200160002060008760018980549050610e4a919061322f565b81548110610e5b57610e5a61311d565b5b9060005260206000200160009054906101000a900473ffffffffffffffffffffffffffffffffffffffff1673ffffffffffffffffffffffffffffffffffffffff1673ffffffffffffffffffffffffffffffffffffffff16815260200190815260200160002054604051610ed0939291906132c8565b60405180910390a18260018480549050610eea919061322f565b81548110610efb57610efa61311d565b5b9060005260206000200160009054906101000a900473ffffffffffffffffffffffffffffffffffffffff1693505050505b919050565b6060610f3d60006126bf565b67ffffffffffffffff811115610f5657610f55612b40565b5b604051908082528060200260200182016040528015610f845781602001602082028036833780820191505090505b50905060005b610f9460006126bf565b81101561100f57610faf8160006126d490919063ffffffff16565b828281518110610fc257610fc161311d565b5b602002602001019073ffffffffffffffffffffffffffffffffffffffff16908173ffffffffffffffffffffffffffffffffffffffff168152505080806110079061317b565b915050610f8a565b5090565b600061101e33610701565b61105d576040517f08c379a0000000000000000000000000000000000000000000000000000000008152600401611054906130fd565b60405180910390fd5b6002600681111561107157611070612e30565b5b600460009054906101000a900460ff16600681111561109357611092612e30565b5b146110d3576040517f08c379a00000000000000000000000000000000000000000000000000000000081526004016110ca9061320f565b60405180910390fd5b600060096000848152602001908152602001600020905060008180549050036111005760009150506116c0565b600181805490500361115357806001815481106111205761111f61311d565b5b9060005260206000200160009054906101000a900473ffffffffffffffffffffffffffffffffffffffff169150506116c0565b6000806000600190505b83805490508110156114085760005b6001858054905061117d919061322f565b8110156113f457600a6000866001846111969190613263565b815481106111a7576111a661311d565b5b9060005260206000200160009054906101000a900473ffffffffffffffffffffffffffffffffffffffff1673ffffffffffffffffffffffffffffffffffffffff1673ffffffffffffffffffffffffffffffffffffffff16815260200190815260200160002054600a60008784815481106112245761122361311d565b5b9060005260206000200160009054906101000a900473ffffffffffffffffffffffffffffffffffffffff1673ffffffffffffffffffffffffffffffffffffffff1673ffffffffffffffffffffffffffffffffffffffff1681526020019081526020016000205411156113e1578460018261129e9190613263565b815481106112af576112ae61311d565b5b9060005260206000200160009054906101000a900473ffffffffffffffffffffffffffffffffffffffff1693508481815481106112ef576112ee61311d565b5b9060005260206000200160009054906101000a900473ffffffffffffffffffffffffffffffffffffffff169250828560018361132b9190613263565b8154811061133c5761133b61311d565b5b9060005260206000200160006101000a81548173ffffffffffffffffffffffffffffffffffffffff021916908373ffffffffffffffffffffffffffffffffffffffff160217905550838582815481106113985761139761311d565b5b9060005260206000200160006101000a81548173ffffffffffffffffffffffffffffffffffffffff021916908373ffffffffffffffffffffffffffffffffffffffff1602179055505b80806113ec9061317b565b91505061116c565b5080806114009061317b565b91505061115d565b50600c836001858054905061141d919061322f565b8154811061142e5761142d61311d565b5b9060005260206000200160009054906101000a900473ffffffffffffffffffffffffffffffffffffffff169080600181540180825580915050600190039060005260206000200160009091909190916101000a81548173ffffffffffffffffffffffffffffffffffffffff021916908373ffffffffffffffffffffffffffffffffffffffff16021790555082600184805490506114cb919061322f565b815481106114dc576114db61311d565b5b9060005260206000200160009054906101000a900473ffffffffffffffffffffffffffffffffffffffff16600d600087815260200190815260200160002060006101000a81548173ffffffffffffffffffffffffffffffffffffffff021916908373ffffffffffffffffffffffffffffffffffffffff1602179055507f3db5550c334486b765a417eaeb4b55623e6a910ff82d20b96e8bc0b0ac25ae36836001858054905061158b919061322f565b8154811061159c5761159b61311d565b5b9060005260206000200160009054906101000a900473ffffffffffffffffffffffffffffffffffffffff1686600a600087600189805490506115de919061322f565b815481106115ef576115ee61311d565b5b9060005260206000200160009054906101000a900473ffffffffffffffffffffffffffffffffffffffff1673ffffffffffffffffffffffffffffffffffffffff1673ffffffffffffffffffffffffffffffffffffffff16815260200190815260200160002054604051611664939291906132c8565b60405180910390a1826001848054905061167e919061322f565b8154811061168f5761168e61311d565b5b9060005260206000200160009054906101000a900473ffffffffffffffffffffffffffffffffffffffff1693505050505b919050565b60056020528060005260406000206000915090505481565b6116e633610701565b611725576040517f08c379a000000000000000000000000000000000000000000000000000000000815260040161171c906130fd565b60405180910390fd5b61172e816126ee565b50565b600060028054906101000a900473ffffffffffffffffffffffffffffffffffffffff1673ffffffffffffffffffffffffffffffffffffffff166370a08231336040518263ffffffff1660e01b815260040161178c9190612ad9565b602060405180830381865afa1580156117a9573d6000803e3d6000fd5b505050506040513d601f19601f820116820180604052508101906117cd9190613314565b9050600354811015611814576040517f08c379a000000000000000000000000000000000000000000000000000000000815260040161180b9061338d565b60405180910390fd5b60028054906101000a900473ffffffffffffffffffffffffffffffffffffffff1673ffffffffffffffffffffffffffffffffffffffff166323b872dd33306003546040518463ffffffff1660e01b8152600401611873939291906133ad565b6020604051808303816000875af1158015611892573d6000803e3d6000fd5b505050506040513d601f19601f820116820180604052508101906118b69190613410565b5060086000848152602001908152602001600020339080600181540180825580915050600190039060005260206000200160009091909190916101000a81548173ffffffffffffffffffffffffffffffffffffffff021916908373ffffffffffffffffffffffffffffffffffffffff16021790555081600b60003373ffffffffffffffffffffffffffffffffffffffff1673ffffffffffffffffffffffffffffffffffffffff168152602001908152602001600020819055506003546005600085815260200190815260200160002060008282546119949190613263565b925050819055507fb4c099c787a2473dfdf70bd9dfa7248d0368736731cae08ed24fe143795814bf336003546040516119ce92919061343d565b60405180910390a1505050565b600460009054906101000a900460ff1681565b6000600260019054906101000a900460ff16159050808015611a2257506001600260009054906101000a900460ff1660ff16105b80611a515750611a3130612749565b158015611a5057506001600260009054906101000a900460ff1660ff16145b5b611a90576040517f08c379a0000000000000000000000000000000000000000000000000000000008152600401611a87906134d8565b60405180910390fd5b6001600260006101000a81548160ff021916908360ff1602179055508015611ace576001600260016101000a81548160ff0219169083151502179055505b611ad7336126ee565b8015611b31576000600260016101000a81548160ff0219169083151502179055507f7f26b83ff96e1f2b6a682f133852f6798a09c465da95921460cefb38474024986001604051611b28919061354a565b60405180910390a15b50565b60036006811115611b4857611b47612e30565b5b600460009054906101000a900460ff166006811115611b6a57611b69612e30565b5b14611baa576040517f08c379a0000000000000000000000000000000000000000000000000000000008152600401611ba1906135b1565b60405180910390fd5b60006006600083815260200190815260200160002060003373ffffffffffffffffffffffffffffffffffffffff1673ffffffffffffffffffffffffffffffffffffffff16815260200190815260200160002060008473ffffffffffffffffffffffffffffffffffffffff1673ffffffffffffffffffffffffffffffffffffffff16815260200190815260200160002054905060008111611c7f576040517f08c379a0000000000000000000000000000000000000000000000000000000008152600401611c769061361d565b60405180910390fd5b60006006600084815260200190815260200160002060003373ffffffffffffffffffffffffffffffffffffffff1673ffffffffffffffffffffffffffffffffffffffff16815260200190815260200160002060008573ffffffffffffffffffffffffffffffffffffffff1673ffffffffffffffffffffffffffffffffffffffff1681526020019081526020016000208190555060028054906101000a900473ffffffffffffffffffffffffffffffffffffffff1673ffffffffffffffffffffffffffffffffffffffff1663a9059cbb33836040518363ffffffff1660e01b8152600401611d6d92919061343d565b6020604051808303816000875af1158015611d8c573d6000803e3d6000fd5b505050506040513d601f19601f82011682018060405250810190611db09190613410565b50806007600084815260200190815260200160002060008573ffffffffffffffffffffffffffffffffffffffff1673ffffffffffffffffffffffffffffffffffffffff1681526020019081526020016000206000828254611e11919061322f565b92505081905550505050565b611e2633612634565b565b600b6020528060005260406000206000915090505481565b6007602052816000526040600020602052806000526040600020600091509150505481565b600a6020528060005260406000206000915090505481565b60035481565b6000600a60008573ffffffffffffffffffffffffffffffffffffffff1673ffffffffffffffffffffffffffffffffffffffff1681526020019081526020016000205411611f05576040517f08c379a0000000000000000000000000000000000000000000000000000000008152600401611efc90613689565b60405180910390fd5b60016006811115611f1957611f18612e30565b5b600460009054906101000a900460ff166006811115611f3b57611f3a612e30565b5b14611f7b576040517f08c379a0000000000000000000000000000000000000000000000000000000008152600401611f72906135b1565b60405180910390fd5b60096000838152602001908152602001600020839080600181540180825580915050600190039060005260206000200160009091909190916101000a81548173ffffffffffffffffffffffffffffffffffffffff021916908373ffffffffffffffffffffffffffffffffffffffff16021790555080600b60003373ffffffffffffffffffffffffffffffffffffffff1673ffffffffffffffffffffffffffffffffffffffff16815260200190815260200160002081905550505050565b60028054906101000a900473ffffffffffffffffffffffffffffffffffffffff1681565b600c818154811061206c57600080fd5b906000526020600020016000915054906101000a900473ffffffffffffffffffffffffffffffffffffffff1681565b600d6020528060005260406000206000915054906101000a900473ffffffffffffffffffffffffffffffffffffffff1681565b600360068111156120e2576120e1612e30565b5b600460009054906101000a900460ff16600681111561210457612103612e30565b5b14612144576040517f08c379a000000000000000000000000000000000000000000000000000000000815260040161213b906135b1565b60405180910390fd5b600060028054906101000a900473ffffffffffffffffffffffffffffffffffffffff1673ffffffffffffffffffffffffffffffffffffffff166370a08231336040518263ffffffff1660e01b815260040161219f9190612ad9565b602060405180830381865afa1580156121bc573d6000803e3d6000fd5b505050506040513d601f19601f820116820180604052508101906121e09190613314565b905081811015612225576040517f08c379a000000000000000000000000000000000000000000000000000000000815260040161221c9061338d565b60405180910390fd5b60028054906101000a900473ffffffffffffffffffffffffffffffffffffffff1673ffffffffffffffffffffffffffffffffffffffff166323b872dd3330856040518463ffffffff1660e01b8152600401612282939291906133ad565b6020604051808303816000875af11580156122a1573d6000803e3d6000fd5b505050506040513d601f19601f820116820180604052508101906122c59190613410565b50816006600085815260200190815260200160002060003373ffffffffffffffffffffffffffffffffffffffff1673ffffffffffffffffffffffffffffffffffffffff16815260200190815260200160002060008673ffffffffffffffffffffffffffffffffffffffff1673ffffffffffffffffffffffffffffffffffffffff16815260200190815260200160002060008282546123639190613263565b925050819055507fe0f44ee1e0acf72eee42e029e4e9facc75d15357e09909c0177e312d540477753385858560405161239f94939291906136a9565b60405180910390a1816007600085815260200190815260200160002060008673ffffffffffffffffffffffffffffffffffffffff1673ffffffffffffffffffffffffffffffffffffffff16815260200190815260200160002060008282546124079190613263565b9250508190555050505050565b600660205282600052604060002060205281600052604060002060205280600052604060002060009250925050505481565b61244f33610701565b61248e576040517f08c379a0000000000000000000000000000000000000000000000000000000008152600401612485906130fd565b60405180910390fd5b80600460006101000a81548160ff021916908360068111156124b3576124b2612e30565b5b02179055507f55155430f2fc3520e8340c6f67caa03baee78210675e157e53f7beb68461357c816040516124e79190612ea7565b60405180910390a150565b6124fb33610701565b61253a576040517f08c379a0000000000000000000000000000000000000000000000000000000008152600401612531906130fd565b60405180910390fd5b6000600a60008473ffffffffffffffffffffffffffffffffffffffff1673ffffffffffffffffffffffffffffffffffffffff16815260200190815260200160002054146125bc576040517f08c379a00000000000000000000000000000000000000000000000000000000081526004016125b39061373a565b60405180910390fd5b80600a60008473ffffffffffffffffffffffffffffffffffffffff1673ffffffffffffffffffffffffffffffffffffffff168152602001908152602001600020819055505050565b600061262c836000018373ffffffffffffffffffffffffffffffffffffffff1660001b61276c565b905092915050565b6126488160006127dc90919063ffffffff16565b508073ffffffffffffffffffffffffffffffffffffffff167fa3b62bc36326052d97ea62d63c3d60308ed4c3ea8ac079dd8499f1e9c4f80c0f60405160405180910390a250565b60006126b7836000018373ffffffffffffffffffffffffffffffffffffffff1660001b61280c565b905092915050565b60006126cd8260000161282f565b9050919050565b60006126e38360000183612840565b60001c905092915050565b61270281600061260490919063ffffffff16565b508073ffffffffffffffffffffffffffffffffffffffff167f44d6d25963f097ad14f29f06854a01f575648a1ef82f30e562ccd3889717e33960405160405180910390a250565b6000808273ffffffffffffffffffffffffffffffffffffffff163b119050919050565b6000612778838361280c565b6127d15782600001829080600181540180825580915050600190039060005260206000200160009091909190915055826000018054905083600101600084815260200190815260200160002081905550600190506127d6565b600090505b92915050565b6000612804836000018373ffffffffffffffffffffffffffffffffffffffff1660001b61286b565b905092915050565b600080836001016000848152602001908152602001600020541415905092915050565b600081600001805490509050919050565b60008260000182815481106128585761285761311d565b5b9060005260206000200154905092915050565b6000808360010160008481526020019081526020016000205490506000811461297357600060018261289d919061322f565b90506000600186600001805490506128b5919061322f565b90508181146129245760008660000182815481106128d6576128d561311d565b5b90600052602060002001549050808760000184815481106128fa576128f961311d565b5b90600052602060002001819055508387600101600083815260200190815260200160002081905550505b856000018054806129385761293761375a565b5b600190038181906000526020600020016000905590558560010160008681526020019081526020016000206000905560019350505050612979565b60009150505b92915050565b6000604051905090565b600080fd5b600080fd5b600073ffffffffffffffffffffffffffffffffffffffff82169050919050565b60006129be82612993565b9050919050565b6129ce816129b3565b81146129d957600080fd5b50565b6000813590506129eb816129c5565b92915050565b600060208284031215612a0757612a06612989565b5b6000612a15848285016129dc565b91505092915050565b6000819050919050565b612a3181612a1e565b8114612a3c57600080fd5b50565b600081359050612a4e81612a28565b92915050565b6000819050919050565b612a6781612a54565b8114612a7257600080fd5b50565b600081359050612a8481612a5e565b92915050565b60008060408385031215612aa157612aa0612989565b5b6000612aaf85828601612a3f565b9250506020612ac085828601612a75565b9150509250929050565b612ad3816129b3565b82525050565b6000602082019050612aee6000830184612aca565b92915050565b60008115159050919050565b612b0981612af4565b82525050565b6000602082019050612b246000830184612b00565b92915050565b600080fd5b6000601f19601f8301169050919050565b7f4e487b7100000000000000000000000000000000000000000000000000000000600052604160045260246000fd5b612b7882612b2f565b810181811067ffffffffffffffff82111715612b9757612b96612b40565b5b80604052505050565b6000612baa61297f565b9050612bb68282612b6f565b919050565b600067ffffffffffffffff821115612bd657612bd5612b40565b5b602082029050602081019050919050565b600080fd5b6000612bff612bfa84612bbb565b612ba0565b90508083825260208201905060208402830185811115612c2257612c21612be7565b5b835b81811015612c4b5780612c3788826129dc565b845260208401935050602081019050612c24565b5050509392505050565b600082601f830112612c6a57612c69612b2a565b5b8135612c7a848260208601612bec565b91505092915050565b600060208284031215612c9957612c98612989565b5b600082013567ffffffffffffffff811115612cb757612cb661298e565b5b612cc384828501612c55565b91505092915050565b600060208284031215612ce257612ce1612989565b5b6000612cf084828501612a75565b91505092915050565b600060208284031215612d0f57612d0e612989565b5b6000612d1d84828501612a3f565b91505092915050565b600081519050919050565b600082825260208201905092915050565b6000819050602082019050919050565b612d5b816129b3565b82525050565b6000612d6d8383612d52565b60208301905092915050565b6000602082019050919050565b6000612d9182612d26565b612d9b8185612d31565b9350612da683612d42565b8060005b83811015612dd7578151612dbe8882612d61565b9750612dc983612d79565b925050600181019050612daa565b5085935050505092915050565b60006020820190508181036000830152612dfe8184612d86565b905092915050565b612e0f81612a54565b82525050565b6000602082019050612e2a6000830184612e06565b92915050565b7f4e487b7100000000000000000000000000000000000000000000000000000000600052602160045260246000fd5b60078110612e7057612e6f612e30565b5b50565b6000819050612e8182612e5f565b919050565b6000612e9182612e73565b9050919050565b612ea181612e86565b82525050565b6000602082019050612ebc6000830184612e98565b92915050565b60008060408385031215612ed957612ed8612989565b5b6000612ee7858286016129dc565b9250506020612ef885828601612a3f565b9150509250929050565b60008060408385031215612f1957612f18612989565b5b6000612f2785828601612a3f565b9250506020612f38858286016129dc565b9150509250929050565b600080600060608486031215612f5b57612f5a612989565b5b6000612f69868287016129dc565b9350506020612f7a86828701612a3f565b9250506040612f8b86828701612a75565b9150509250925092565b600080600060608486031215612fae57612fad612989565b5b6000612fbc86828701612a3f565b9350506020612fcd868287016129dc565b9250506040612fde868287016129dc565b9150509250925092565b60078110612ff557600080fd5b50565b60008135905061300781612fe8565b92915050565b60006020828403121561302357613022612989565b5b600061303184828501612ff8565b91505092915050565b6000806040838503121561305157613050612989565b5b600061305f858286016129dc565b925050602061307085828601612a75565b9150509250929050565b600082825260208201905092915050565b7f41646d696e526f6c653a2063616c6c657220646f6573206e6f7420686176652060008201527f7468652041646d696e20726f6c65000000000000000000000000000000000000602082015250565b60006130e7602e8361307a565b91506130f28261308b565b604082019050919050565b60006020820190508181036000830152613116816130da565b9050919050565b7f4e487b7100000000000000000000000000000000000000000000000000000000600052603260045260246000fd5b7f4e487b7100000000000000000000000000000000000000000000000000000000600052601160045260246000fd5b600061318682612a54565b91507fffffffffffffffffffffffffffffffffffffffffffffffffffffffffffffffff82036131b8576131b761314c565b5b600182019050919050565b7f766f74696e67206973206e6f7420696e2074686520656e640000000000000000600082015250565b60006131f960188361307a565b9150613204826131c3565b602082019050919050565b60006020820190508181036000830152613228816131ec565b9050919050565b600061323a82612a54565b915061324583612a54565b9250828210156132585761325761314c565b5b828203905092915050565b600061326e82612a54565b915061327983612a54565b9250827fffffffffffffffffffffffffffffffffffffffffffffffffffffffffffffffff038211156132ae576132ad61314c565b5b828201905092915050565b6132c281612a1e565b82525050565b60006060820190506132dd6000830186612aca565b6132ea60208301856132b9565b6132f76040830184612e06565b949350505050565b60008151905061330e81612a5e565b92915050565b60006020828403121561332a57613329612989565b5b6000613338848285016132ff565b91505092915050565b7f496e73756666696369656e742062616c616e6365000000000000000000000000600082015250565b600061337760148361307a565b915061338282613341565b602082019050919050565b600060208201905081810360008301526133a68161336a565b9050919050565b60006060820190506133c26000830186612aca565b6133cf6020830185612aca565b6133dc6040830184612e06565b949350505050565b6133ed81612af4565b81146133f857600080fd5b50565b60008151905061340a816133e4565b92915050565b60006020828403121561342657613425612989565b5b6000613434848285016133fb565b91505092915050565b60006040820190506134526000830185612aca565b61345f6020830184612e06565b9392505050565b7f496e697469616c697a61626c653a20636f6e747261637420697320616c72656160008201527f647920696e697469616c697a6564000000000000000000000000000000000000602082015250565b60006134c2602e8361307a565b91506134cd82613466565b604082019050919050565b600060208201905081810360008301526134f1816134b5565b9050919050565b6000819050919050565b600060ff82169050919050565b6000819050919050565b600061353461352f61352a846134f8565b61350f565b613502565b9050919050565b61354481613519565b82525050565b600060208201905061355f600083018461353b565b92915050565b7f766f74696e67206973206e6f7420696e2070726f677265737300000000000000600082015250565b600061359b60198361307a565b91506135a682613565565b602082019050919050565b600060208201905081810360008301526135ca8161358e565b9050919050565b7f596f752068617665206e6f7420766f7465000000000000000000000000000000600082015250565b600061360760118361307a565b9150613612826135d1565b602082019050919050565b60006020820190508181036000830152613636816135fa565b9050919050565b7f596f7520617265206e6f7420676c6f62616c206e6f6465000000000000000000600082015250565b600061367360178361307a565b915061367e8261363d565b602082019050919050565b600060208201905081810360008301526136a281613666565b9050919050565b60006080820190506136be6000830187612aca565b6136cb6020830186612aca565b6136d860408301856132b9565b6136e56060830184612e06565b95945050505050565b7f616c726561647920657869737473000000000000000000000000000000000000600082015250565b6000613724600e8361307a565b915061372f826136ee565b602082019050919050565b6000602082019050818103600083015261375381613717565b9050919050565b7f4e487b7100000000000000000000000000000000000000000000000000000000600052603160045260246000fdfea264697066735822122056c7cd34d39415f40d26aeb7cadbd58c2320a135ebf1674f5b8a8c905079285d64736f6c634300080d0033",
  "linkReferences": {},
  "deployedLinkReferences": {}
}