{
  "_format": "hh-sol-artifact-1",
  "contractName": "CityNodeReward",
  "sourceName": "contracts/CityNodeReward.sol",
  "abi": [
    {
      "inputs": [],
      "stateMutability": "nonpayable",
      "type": "constructor"
    },
    {
      "anonymous": false,
      "inputs": [
        {
          "indexed": true,
          "internalType": "address",
          "name": "account",
          "type": "address"
        }
      ],
      "name": "AdminAdded",
      "type": "event"
    },
    {
      "anonymous": false,
      "inputs": [
        {
          "indexed": true,
          "internalType": "address",
          "name": "account",
          "type": "address"
        }
      ],
      "name": "AdminRemoved",
      "type": "event"
    },
    {
      "anonymous": false,
      "inputs": [
        {
          "indexed": false,
          "internalType": "address",
          "name": "user",
          "type": "address"
        },
        {
          "indexed": false,
          "internalType": "uint256",
          "name": "applyFee",
          "type": "uint256"
        }
      ],
      "name": "ApplyCandidateRecord",
      "type": "event"
    },
    {
      "anonymous": false,
      "inputs": [
        {
          "indexed": false,
          "internalType": "uint8",
          "name": "version",
          "type": "uint8"
        }
      ],
      "name": "Initialized",
      "type": "event"
    },
    {
      "anonymous": false,
      "inputs": [
        {
          "indexed": false,
          "internalType": "bytes32",
          "name": "cityId",
          "type": "bytes32"
        },
        {
          "indexed": false,
          "internalType": "uint256",
          "name": "latestDelegate",
          "type": "uint256"
        },
        {
          "indexed": false,
          "internalType": "uint256",
          "name": "timeStemp",
          "type": "uint256"
        }
      ],
      "name": "UpdateLatestDelegateRecord",
      "type": "event"
    },
    {
      "anonymous": false,
      "inputs": [
        {
          "indexed": false,
          "internalType": "bytes32",
          "name": "cityId",
          "type": "bytes32"
        },
        {
          "indexed": false,
          "internalType": "uint256",
          "name": "rewardsForSocialFunds",
          "type": "uint256"
        },
        {
          "indexed": false,
          "internalType": "uint256",
          "name": "timeStemp",
          "type": "uint256"
        }
      ],
      "name": "UpdateSocialFundsRecord",
      "type": "event"
    },
    {
      "anonymous": false,
      "inputs": [
        {
          "indexed": false,
          "internalType": "address",
          "name": "user",
          "type": "address"
        },
        {
          "indexed": false,
          "internalType": "address",
          "name": "candidate",
          "type": "address"
        },
        {
          "indexed": false,
          "internalType": "bytes32",
          "name": "cityId",
          "type": "bytes32"
        },
        {
          "indexed": false,
          "internalType": "uint256",
          "name": "toxNum",
          "type": "uint256"
        }
      ],
      "name": "VoteRecord",
      "type": "event"
    },
    {
      "anonymous": false,
      "inputs": [
        {
          "indexed": false,
          "internalType": "enum Events.VoteStatus",
          "name": "voteStatus",
          "type": "uint8"
        }
      ],
      "name": "VoteStatusChangeRecord",
      "type": "event"
    },
    {
      "anonymous": false,
      "inputs": [
        {
          "indexed": false,
          "internalType": "address",
          "name": "node",
          "type": "address"
        },
        {
          "indexed": false,
          "internalType": "bytes32",
          "name": "cityId",
          "type": "bytes32"
        },
        {
          "indexed": false,
          "internalType": "uint256",
          "name": "toxNum",
          "type": "uint256"
        }
      ],
      "name": "VoteSuccessRecord",
      "type": "event"
    },
    {
      "inputs": [
        {
          "internalType": "address",
          "name": "account",
          "type": "address"
        }
      ],
      "name": "addAdmin",
      "outputs": [],
      "stateMutability": "nonpayable",
      "type": "function"
    },
    {
      "inputs": [
        {
          "internalType": "bytes32",
          "name": "cityId",
          "type": "bytes32"
        },
        {
          "internalType": "uint256",
          "name": "latestDelegate_",
          "type": "uint256"
        }
      ],
      "name": "adminSetLatestDelegate_",
      "outputs": [],
      "stateMutability": "nonpayable",
      "type": "function"
    },
    {
      "inputs": [
        {
          "internalType": "bytes32",
          "name": "cityId",
          "type": "bytes32"
        },
        {
          "internalType": "uint256",
          "name": "founds_",
          "type": "uint256"
        }
      ],
      "name": "adminSetRewardsForSocialFunds",
      "outputs": [],
      "stateMutability": "nonpayable",
      "type": "function"
    },
    {
      "inputs": [
        {
          "internalType": "address",
          "name": "voteAddress_",
          "type": "address"
        }
      ],
      "name": "adminSetVoteAddress",
      "outputs": [],
      "stateMutability": "nonpayable",
      "type": "function"
    },
    {
      "inputs": [],
      "name": "allAdmins",
      "outputs": [
        {
          "internalType": "address[]",
          "name": "admins",
          "type": "address[]"
        }
      ],
      "stateMutability": "view",
      "type": "function"
    },
    {
      "inputs": [
        {
          "internalType": "address[]",
          "name": "amounts",
          "type": "address[]"
        }
      ],
      "name": "batchAddAdmin",
      "outputs": [],
      "stateMutability": "nonpayable",
      "type": "function"
    },
    {
      "inputs": [
        {
          "internalType": "bytes32",
          "name": "cityId",
          "type": "bytes32"
        }
      ],
      "name": "campaignSuccessRewards",
      "outputs": [],
      "stateMutability": "nonpayable",
      "type": "function"
    },
    {
      "inputs": [],
      "name": "initialize",
      "outputs": [],
      "stateMutability": "nonpayable",
      "type": "function"
    },
    {
      "inputs": [
        {
          "internalType": "address",
          "name": "account",
          "type": "address"
        }
      ],
      "name": "isAdmin",
      "outputs": [
        {
          "internalType": "bool",
          "name": "",
          "type": "bool"
        }
      ],
      "stateMutability": "view",
      "type": "function"
    },
    {
      "inputs": [
        {
          "internalType": "bytes32",
          "name": "",
          "type": "bytes32"
        }
      ],
      "name": "latestDelegate",
      "outputs": [
        {
          "internalType": "uint256",
          "name": "",
          "type": "uint256"
        }
      ],
      "stateMutability": "view",
      "type": "function"
    },
    {
      "inputs": [
        {
          "internalType": "address",
          "name": "account",
          "type": "address"
        }
      ],
      "name": "removeAdmin",
      "outputs": [],
      "stateMutability": "nonpayable",
      "type": "function"
    },
    {
      "inputs": [],
      "name": "renounceAdmin",
      "outputs": [],
      "stateMutability": "nonpayable",
      "type": "function"
    },
    {
      "inputs": [
        {
          "internalType": "bytes32",
          "name": "cityId",
          "type": "bytes32"
        }
      ],
      "name": "rewardNode",
      "outputs": [],
      "stateMutability": "nonpayable",
      "type": "function"
    },
    {
      "inputs": [
        {
          "internalType": "bytes32",
          "name": "",
          "type": "bytes32"
        }
      ],
      "name": "rewardsForSocialFunds",
      "outputs": [
        {
          "internalType": "uint256",
          "name": "",
          "type": "uint256"
        }
      ],
      "stateMutability": "view",
      "type": "function"
    },
    {
      "inputs": [],
      "name": "unlock",
      "outputs": [],
      "stateMutability": "nonpayable",
      "type": "function"
    },
    {
      "inputs": [],
      "name": "voteAddress",
      "outputs": [
        {
          "internalType": "address",
          "name": "",
          "type": "address"
        }
      ],
      "stateMutability": "view",
      "type": "function"
    }
  ],
  "bytecode": "0x60806040523480156200001157600080fd5b5062000023336200002960201b60201c565b62000160565b620000448160006200008b60201b62000e4c1790919060201c565b508073ffffffffffffffffffffffffffffffffffffffff167f44d6d25963f097ad14f29f06854a01f575648a1ef82f30e562ccd3889717e33960405160405180910390a250565b6000620000bb836000018373ffffffffffffffffffffffffffffffffffffffff1660001b620000c360201b60201c565b905092915050565b6000620000d783836200013d60201b60201c565b6200013257826000018290806001815401808255809150506001900390600052602060002001600090919091909150558260000180549050836001016000848152602001908152602001600020819055506001905062000137565b600090505b92915050565b600080836001016000848152602001908152602001600020541415905092915050565b611bcc80620001706000396000f3fe608060405234801561001057600080fd5b50600436106101005760003560e01c80638129fc1c11610097578063a442945f11610066578063a442945f14610271578063a69df4b51461028d578063cdcbba7b14610297578063ddb38c92146102b357610100565b80638129fc1c14610211578063836a66361461021b5780638bad0c0a14610237578063a2e44b041461024157610100565b806340f32be6116100d357806340f32be61461018b5780635c22ea01146101a957806370480275146101c55780637f1c4fb0146101e157610100565b80631785f53c1461010557806324d7806c146101215780632c9ab42b146101515780633d6dc9281461016d575b600080fd5b61011f600480360381019061011a9190611239565b6102cf565b005b61013b60048036038101906101369190611239565b610323565b6040516101489190611281565b60405180910390f35b61016b600480360381019061016691906113f5565b610340565b005b6101756103ce565b604051610182919061144d565b60405180910390f35b6101936103f2565b6040516101a09190611526565b60405180910390f35b6101c360048036038101906101be919061157e565b6104d4565b005b6101df60048036038101906101da9190611239565b61084a565b005b6101fb60048036038101906101f6919061157e565b61089e565b60405161020891906115c4565b60405180910390f35b6102196108b6565b005b61023560048036038101906102309190611239565b6109fc565b005b61023f610a87565b005b61025b6004803603810190610256919061157e565b610a92565b60405161026891906115c4565b60405180910390f35b61028b6004803603810190610286919061160b565b610aaa565b005b610295610b49565b005b6102b160048036038101906102ac919061157e565b610b4b565b005b6102cd60048036038101906102c8919061160b565b610dad565b005b6102d833610323565b610317576040517f08c379a000000000000000000000000000000000000000000000000000000000815260040161030e906116ce565b60405180910390fd5b61032081610e7c565b50565b6000610339826000610ed790919063ffffffff16565b9050919050565b61034933610323565b610388576040517f08c379a000000000000000000000000000000000000000000000000000000000815260040161037f906116ce565b60405180910390fd5b60005b81518110156103ca576103b78282815181106103aa576103a96116ee565b5b602002602001015161084a565b80806103c29061174c565b91505061038b565b5050565b60028054906101000a900473ffffffffffffffffffffffffffffffffffffffff1681565b60606103fe6000610f07565b67ffffffffffffffff811115610417576104166112b2565b5b6040519080825280602002602001820160405280156104455781602001602082028036833780820191505090505b50905060005b6104556000610f07565b8110156104d057610470816000610f1c90919063ffffffff16565b828281518110610483576104826116ee565b5b602002602001019073ffffffffffffffffffffffffffffffffffffffff16908173ffffffffffffffffffffffffffffffffffffffff168152505080806104c89061174c565b91505061044b565b5090565b6104dd33610323565b61051c576040517f08c379a0000000000000000000000000000000000000000000000000000000008152600401610513906116ce565b60405180910390fd5b600060028054906101000a900473ffffffffffffffffffffffffffffffffffffffff16905060008173ffffffffffffffffffffffffffffffffffffffff1663e7069dea846040518263ffffffff1660e01b815260040161057c91906117a3565b602060405180830381865afa158015610599573d6000803e3d6000fd5b505050506040513d601f19601f820116820180604052508101906105bd91906117d3565b905060008273ffffffffffffffffffffffffffffffffffffffff1663a1204f87836040518263ffffffff1660e01b81526004016105fa919061144d565b602060405180830381865afa158015610617573d6000803e3d6000fd5b505050506040513d601f19601f8201168201806040525081019061063b9190611815565b90508273ffffffffffffffffffffffffffffffffffffffff1663a2410f3f85846040518363ffffffff1660e01b8152600401610678929190611842565b602060405180830381865afa158015610695573d6000803e3d6000fd5b505050506040513d601f19601f820116820180604052508101906106b99190611815565b506000600460008681526020019081526020016000205460036000878152602001908152602001600020546106ee919061186b565b9050600060648284606461070291906118c1565b61070c91906118f5565b610716919061197e565b905060008573ffffffffffffffffffffffffffffffffffffffff1663c4b6c3816040518163ffffffff1660e01b8152600401602060405180830381865afa158015610765573d6000803e3d6000fd5b505050506040513d601f19601f8201168201806040525081019061078991906117d3565b90508073ffffffffffffffffffffffffffffffffffffffff1663a9059cbb86846040518363ffffffff1660e01b81526004016107c69291906119af565b6020604051808303816000875af11580156107e5573d6000803e3d6000fd5b505050506040513d601f19601f820116820180604052508101906108099190611a04565b5060006064848661081a91906118f5565b610824919061197e565b90506064848661083491906118f5565b61083e919061197e565b90505050505050505050565b61085333610323565b610892576040517f08c379a0000000000000000000000000000000000000000000000000000000008152600401610889906116ce565b60405180910390fd5b61089b81610f36565b50565b60046020528060005260406000206000915090505481565b6000600260019054906101000a900460ff161590508080156108ea57506001600260009054906101000a900460ff1660ff16105b8061091957506108f930610f91565b15801561091857506001600260009054906101000a900460ff1660ff16145b5b610958576040517f08c379a000000000000000000000000000000000000000000000000000000000815260040161094f90611aa3565b60405180910390fd5b6001600260006101000a81548160ff021916908360ff1602179055508015610996576001600260016101000a81548160ff0219169083151502179055505b61099f33610f36565b80156109f9576000600260016101000a81548160ff0219169083151502179055507f7f26b83ff96e1f2b6a682f133852f6798a09c465da95921460cefb384740249860016040516109f09190611b15565b60405180910390a15b50565b610a0533610323565b610a44576040517f08c379a0000000000000000000000000000000000000000000000000000000008152600401610a3b906116ce565b60405180910390fd5b806002806101000a81548173ffffffffffffffffffffffffffffffffffffffff021916908373ffffffffffffffffffffffffffffffffffffffff16021790555050565b610a9033610e7c565b565b60036020528060005260406000206000915090505481565b610ab333610323565b610af2576040517f08c379a0000000000000000000000000000000000000000000000000000000008152600401610ae9906116ce565b60405180910390fd5b8060046000848152602001908152602001600020819055507f78adb735efba8e12a334cf40bdfa96c770d41ebaf264a951b8668abb556f6a5f828242604051610b3d93929190611b30565b60405180910390a15050565b565b610b5433610323565b610b93576040517f08c379a0000000000000000000000000000000000000000000000000000000008152600401610b8a906116ce565b60405180910390fd5b600060028054906101000a900473ffffffffffffffffffffffffffffffffffffffff16905060008173ffffffffffffffffffffffffffffffffffffffff1663e7069dea846040518263ffffffff1660e01b8152600401610bf391906117a3565b602060405180830381865afa158015610c10573d6000803e3d6000fd5b505050506040513d601f19601f82011682018060405250810190610c3491906117d3565b905060008273ffffffffffffffffffffffffffffffffffffffff166355e8426c856040518263ffffffff1660e01b8152600401610c7191906117a3565b602060405180830381865afa158015610c8e573d6000803e3d6000fd5b505050506040513d601f19601f82011682018060405250810190610cb29190611815565b905060008373ffffffffffffffffffffffffffffffffffffffff1663c4b6c3816040518163ffffffff1660e01b8152600401602060405180830381865afa158015610d01573d6000803e3d6000fd5b505050506040513d601f19601f82011682018060405250810190610d2591906117d3565b90508073ffffffffffffffffffffffffffffffffffffffff1663a9059cbb84846040518363ffffffff1660e01b8152600401610d629291906119af565b6020604051808303816000875af1158015610d81573d6000803e3d6000fd5b505050506040513d601f19601f82011682018060405250810190610da59190611a04565b505050505050565b610db633610323565b610df5576040517f08c379a0000000000000000000000000000000000000000000000000000000008152600401610dec906116ce565b60405180910390fd5b8060036000848152602001908152602001600020819055507f3273700d9d1ece7fb854e67f0c4fd16afac4bc63ff630cec2f68e31503189778828242604051610e4093929190611b30565b60405180910390a15050565b6000610e74836000018373ffffffffffffffffffffffffffffffffffffffff1660001b610fb4565b905092915050565b610e9081600061102490919063ffffffff16565b508073ffffffffffffffffffffffffffffffffffffffff167fa3b62bc36326052d97ea62d63c3d60308ed4c3ea8ac079dd8499f1e9c4f80c0f60405160405180910390a250565b6000610eff836000018373ffffffffffffffffffffffffffffffffffffffff1660001b611054565b905092915050565b6000610f1582600001611077565b9050919050565b6000610f2b8360000183611088565b60001c905092915050565b610f4a816000610e4c90919063ffffffff16565b508073ffffffffffffffffffffffffffffffffffffffff167f44d6d25963f097ad14f29f06854a01f575648a1ef82f30e562ccd3889717e33960405160405180910390a250565b6000808273ffffffffffffffffffffffffffffffffffffffff163b119050919050565b6000610fc08383611054565b61101957826000018290806001815401808255809150506001900390600052602060002001600090919091909150558260000180549050836001016000848152602001908152602001600020819055506001905061101e565b600090505b92915050565b600061104c836000018373ffffffffffffffffffffffffffffffffffffffff1660001b6110b3565b905092915050565b600080836001016000848152602001908152602001600020541415905092915050565b600081600001805490509050919050565b60008260000182815481106110a05761109f6116ee565b5b9060005260206000200154905092915050565b600080836001016000848152602001908152602001600020549050600081146111bb5760006001826110e591906118c1565b90506000600186600001805490506110fd91906118c1565b905081811461116c57600086600001828154811061111e5761111d6116ee565b5b9060005260206000200154905080876000018481548110611142576111416116ee565b5b90600052602060002001819055508387600101600083815260200190815260200160002081905550505b856000018054806111805761117f611b67565b5b6001900381819060005260206000200160009055905585600101600086815260200190815260200160002060009055600193505050506111c1565b60009150505b92915050565b6000604051905090565b600080fd5b600080fd5b600073ffffffffffffffffffffffffffffffffffffffff82169050919050565b6000611206826111db565b9050919050565b611216816111fb565b811461122157600080fd5b50565b6000813590506112338161120d565b92915050565b60006020828403121561124f5761124e6111d1565b5b600061125d84828501611224565b91505092915050565b60008115159050919050565b61127b81611266565b82525050565b60006020820190506112966000830184611272565b92915050565b600080fd5b6000601f19601f8301169050919050565b7f4e487b7100000000000000000000000000000000000000000000000000000000600052604160045260246000fd5b6112ea826112a1565b810181811067ffffffffffffffff82111715611309576113086112b2565b5b80604052505050565b600061131c6111c7565b905061132882826112e1565b919050565b600067ffffffffffffffff821115611348576113476112b2565b5b602082029050602081019050919050565b600080fd5b600061137161136c8461132d565b611312565b9050808382526020820190506020840283018581111561139457611393611359565b5b835b818110156113bd57806113a98882611224565b845260208401935050602081019050611396565b5050509392505050565b600082601f8301126113dc576113db61129c565b5b81356113ec84826020860161135e565b91505092915050565b60006020828403121561140b5761140a6111d1565b5b600082013567ffffffffffffffff811115611429576114286111d6565b5b611435848285016113c7565b91505092915050565b611447816111fb565b82525050565b6000602082019050611462600083018461143e565b92915050565b600081519050919050565b600082825260208201905092915050565b6000819050602082019050919050565b61149d816111fb565b82525050565b60006114af8383611494565b60208301905092915050565b6000602082019050919050565b60006114d382611468565b6114dd8185611473565b93506114e883611484565b8060005b8381101561151957815161150088826114a3565b975061150b836114bb565b9250506001810190506114ec565b5085935050505092915050565b6000602082019050818103600083015261154081846114c8565b905092915050565b6000819050919050565b61155b81611548565b811461156657600080fd5b50565b60008135905061157881611552565b92915050565b600060208284031215611594576115936111d1565b5b60006115a284828501611569565b91505092915050565b6000819050919050565b6115be816115ab565b82525050565b60006020820190506115d960008301846115b5565b92915050565b6115e8816115ab565b81146115f357600080fd5b50565b600081359050611605816115df565b92915050565b60008060408385031215611622576116216111d1565b5b600061163085828601611569565b9250506020611641858286016115f6565b9150509250929050565b600082825260208201905092915050565b7f41646d696e526f6c653a2063616c6c657220646f6573206e6f7420686176652060008201527f7468652041646d696e20726f6c65000000000000000000000000000000000000602082015250565b60006116b8602e8361164b565b91506116c38261165c565b604082019050919050565b600060208201905081810360008301526116e7816116ab565b9050919050565b7f4e487b7100000000000000000000000000000000000000000000000000000000600052603260045260246000fd5b7f4e487b7100000000000000000000000000000000000000000000000000000000600052601160045260246000fd5b6000611757826115ab565b91507fffffffffffffffffffffffffffffffffffffffffffffffffffffffffffffffff82036117895761178861171d565b5b600182019050919050565b61179d81611548565b82525050565b60006020820190506117b86000830184611794565b92915050565b6000815190506117cd8161120d565b92915050565b6000602082840312156117e9576117e86111d1565b5b60006117f7848285016117be565b91505092915050565b60008151905061180f816115df565b92915050565b60006020828403121561182b5761182a6111d1565b5b600061183984828501611800565b91505092915050565b60006040820190506118576000830185611794565b611864602083018461143e565b9392505050565b6000611876826115ab565b9150611881836115ab565b9250827fffffffffffffffffffffffffffffffffffffffffffffffffffffffffffffffff038211156118b6576118b561171d565b5b828201905092915050565b60006118cc826115ab565b91506118d7836115ab565b9250828210156118ea576118e961171d565b5b828203905092915050565b6000611900826115ab565b915061190b836115ab565b9250817fffffffffffffffffffffffffffffffffffffffffffffffffffffffffffffffff04831182151516156119445761194361171d565b5b828202905092915050565b7f4e487b7100000000000000000000000000000000000000000000000000000000600052601260045260246000fd5b6000611989826115ab565b9150611994836115ab565b9250826119a4576119a361194f565b5b828204905092915050565b60006040820190506119c4600083018561143e565b6119d160208301846115b5565b9392505050565b6119e181611266565b81146119ec57600080fd5b50565b6000815190506119fe816119d8565b92915050565b600060208284031215611a1a57611a196111d1565b5b6000611a28848285016119ef565b91505092915050565b7f496e697469616c697a61626c653a20636f6e747261637420697320616c72656160008201527f647920696e697469616c697a6564000000000000000000000000000000000000602082015250565b6000611a8d602e8361164b565b9150611a9882611a31565b604082019050919050565b60006020820190508181036000830152611abc81611a80565b9050919050565b6000819050919050565b600060ff82169050919050565b6000819050919050565b6000611aff611afa611af584611ac3565b611ada565b611acd565b9050919050565b611b0f81611ae4565b82525050565b6000602082019050611b2a6000830184611b06565b92915050565b6000606082019050611b456000830186611794565b611b5260208301856115b5565b611b5f60408301846115b5565b949350505050565b7f4e487b7100000000000000000000000000000000000000000000000000000000600052603160045260246000fdfea264697066735822122005962a3e890de1df564c05d43449ec8eb787c4cd7d1f6b38db13a927bdb109e364736f6c634300080d0033",
  "linkReferences": {},
  "deployedLinkReferences": {}
}