{
  "_format": "hh-sol-artifact-1",
  "contractName": "UserLocation",
  "sourceName": "contracts/UserLocation.sol",
  "abi": [
    {
      "anonymous": false,
      "inputs": [
        {
          "indexed": false,
          "internalType": "bytes32",
          "name": "data",
          "type": "bytes32"
        }
      ],
      "name": "LogBytes32",
      "type": "event"
    },
    {
      "anonymous": false,
      "inputs": [
        {
          "indexed": false,
          "internalType": "address",
          "name": "user",
          "type": "address"
        },
        {
          "indexed": false,
          "internalType": "string",
          "name": "country",
          "type": "string"
        },
        {
          "indexed": false,
          "internalType": "string",
          "name": "city",
          "type": "string"
        },
        {
          "indexed": false,
          "internalType": "string",
          "name": "county",
          "type": "string"
        },
        {
          "indexed": false,
          "internalType": "bytes32",
          "name": "cityId",
          "type": "bytes32"
        },
        {
          "indexed": false,
          "internalType": "enum UserLocation.LocationType",
          "name": "locationType",
          "type": "uint8"
        }
      ],
      "name": "UserLocationRecord",
      "type": "event"
    },
    {
      "inputs": [
        {
          "internalType": "string",
          "name": "_str",
          "type": "string"
        }
      ],
      "name": "getKeccak256",
      "outputs": [
        {
          "internalType": "bytes32",
          "name": "",
          "type": "bytes32"
        }
      ],
      "stateMutability": "pure",
      "type": "function"
    },
    {
      "inputs": [],
      "name": "getKeccak2562",
      "outputs": [
        {
          "internalType": "bytes32",
          "name": "",
          "type": "bytes32"
        }
      ],
      "stateMutability": "pure",
      "type": "function"
    },
    {
      "inputs": [
        {
          "internalType": "bytes32",
          "name": "cityId",
          "type": "bytes32"
        },
        {
          "internalType": "address",
          "name": "user",
          "type": "address"
        },
        {
          "internalType": "string",
          "name": "city_",
          "type": "string"
        },
        {
          "internalType": "string",
          "name": "county_",
          "type": "string"
        }
      ],
      "name": "getUserLocationHash",
      "outputs": [
        {
          "internalType": "bytes32",
          "name": "",
          "type": "bytes32"
        }
      ],
      "stateMutability": "pure",
      "type": "function"
    },
    {
      "inputs": [
        {
          "internalType": "bytes32",
          "name": "cityId_",
          "type": "bytes32"
        },
        {
          "internalType": "string",
          "name": "country_",
          "type": "string"
        },
        {
          "internalType": "string",
          "name": "city_",
          "type": "string"
        },
        {
          "internalType": "string",
          "name": "county_",
          "type": "string"
        }
      ],
      "name": "setUserLocation",
      "outputs": [],
      "stateMutability": "nonpayable",
      "type": "function"
    },
    {
      "inputs": [
        {
          "internalType": "address",
          "name": "",
          "type": "address"
        }
      ],
      "name": "userCityInfo",
      "outputs": [
        {
          "internalType": "string",
          "name": "country",
          "type": "string"
        },
        {
          "internalType": "string",
          "name": "city",
          "type": "string"
        },
        {
          "internalType": "string",
          "name": "county",
          "type": "string"
        },
        {
          "internalType": "bytes32",
          "name": "cityId",
          "type": "bytes32"
        },
        {
          "internalType": "enum UserLocation.LocationType",
          "name": "locationType",
          "type": "uint8"
        }
      ],
      "stateMutability": "view",
      "type": "function"
    },
    {
      "inputs": [
        {
          "internalType": "address",
          "name": "",
          "type": "address"
        }
      ],
      "name": "userCountyInfo",
      "outputs": [
        {
          "internalType": "string",
          "name": "country",
          "type": "string"
        },
        {
          "internalType": "string",
          "name": "city",
          "type": "string"
        },
        {
          "internalType": "string",
          "name": "county",
          "type": "string"
        },
        {
          "internalType": "bytes32",
          "name": "cityId",
          "type": "bytes32"
        },
        {
          "internalType": "enum UserLocation.LocationType",
          "name": "locationType",
          "type": "uint8"
        }
      ],
      "stateMutability": "view",
      "type": "function"
    },
    {
      "inputs": [
        {
          "internalType": "bytes32",
          "name": "",
          "type": "bytes32"
        }
      ],
      "name": "userLocationHash",
      "outputs": [
        {
          "internalType": "bytes32",
          "name": "",
          "type": "bytes32"
        }
      ],
      "stateMutability": "view",
      "type": "function"
    },
    {
      "inputs": [
        {
          "internalType": "bytes32",
          "name": "",
          "type": "bytes32"
        }
      ],
      "name": "userNumberOfCity",
      "outputs": [
        {
          "internalType": "uint256",
          "name": "",
          "type": "uint256"
        }
      ],
      "stateMutability": "view",
      "type": "function"
    }
  ],
  "bytecode": "0x608060405234801561001057600080fd5b50610da7806100206000396000f3fe608060405234801561001057600080fd5b50600436106100875760003560e01c8063bc9c76991161005b578063bc9c76991461012a578063d03834b51461015e578063e499f1c91461018e578063ff7ef601146101be57610087565b8062f86ac71461008c578063132b53f5146100bc57806321153ab5146100f057806398d4680c1461010c575b600080fd5b6100a660048036038101906100a1919061076a565b6101ee565b6040516100b391906107d0565b60405180910390f35b6100d660048036038101906100d19190610849565b610221565b6040516100e7959493929190610986565b60405180910390f35b61010a60048036038101906101059190610a1a565b6103fc565b005b610114610481565b60405161012191906107d0565b60405180910390f35b610144600480360381019061013f9190610849565b6104b1565b604051610155959493929190610986565b60405180910390f35b61017860048036038101906101739190610ae3565b61068c565b6040516101859190610b29565b60405180910390f35b6101a860048036038101906101a39190610ae3565b6106a4565b6040516101b591906107d0565b60405180910390f35b6101d860048036038101906101d39190610b44565b6106bc565b6040516101e591906107d0565b60405180910390f35b60008282604051602001610203929190610c2a565b60405160208183030381529060405280519060200120905092915050565b600160205280600052604060002060009150905080600001805461024490610c72565b80601f016020809104026020016040519081016040528092919081815260200182805461027090610c72565b80156102bd5780601f10610292576101008083540402835291602001916102bd565b820191906000526020600020905b8154815290600101906020018083116102a057829003601f168201915b5050505050908060010180546102d290610c72565b80601f01602080910402602001604051908101604052809291908181526020018280546102fe90610c72565b801561034b5780601f106103205761010080835404028352916020019161034b565b820191906000526020600020905b81548152906001019060200180831161032e57829003601f168201915b50505050509080600201805461036090610c72565b80601f016020809104026020016040519081016040528092919081815260200182805461038c90610c72565b80156103d95780601f106103ae576101008083540402835291602001916103d9565b820191906000526020600020905b8154815290600101906020018083116103bc57829003601f168201915b5050505050908060030154908060040160009054906101000a900460ff16905085565b60007e9fd52f05c0ded31d6fb0ee580b923f85e99cf1a5a1da342f25e73c45829c838160405161042c91906107d0565b60405180910390a17e9fd52f05c0ded31d6fb0ee580b923f85e99cf1a5a1da342f25e73c45829c836104628933888888886106bc565b60405161046f91906107d0565b60405180910390a15050505050505050565b600080806040516020016104959190610cc4565b6040516020818303038152906040528051906020012091505090565b60006020528060005260406000206000915090508060000180546104d490610c72565b80601f016020809104026020016040519081016040528092919081815260200182805461050090610c72565b801561054d5780601f106105225761010080835404028352916020019161054d565b820191906000526020600020905b81548152906001019060200180831161053057829003601f168201915b50505050509080600101805461056290610c72565b80601f016020809104026020016040519081016040528092919081815260200182805461058e90610c72565b80156105db5780601f106105b0576101008083540402835291602001916105db565b820191906000526020600020905b8154815290600101906020018083116105be57829003601f168201915b5050505050908060020180546105f090610c72565b80601f016020809104026020016040519081016040528092919081815260200182805461061c90610c72565b80156106695780601f1061063e57610100808354040283529160200191610669565b820191906000526020600020905b81548152906001019060200180831161064c57829003601f168201915b5050505050908060030154908060040160009054906101000a900460ff16905085565b60036020528060005260406000206000915090505481565b60026020528060005260406000206000915090505481565b60008686868686866040516020016106d996959493929190610d27565b6040516020818303038152906040528051906020012090509695505050505050565b600080fd5b600080fd5b600080fd5b600080fd5b600080fd5b60008083601f84011261072a57610729610705565b5b8235905067ffffffffffffffff8111156107475761074661070a565b5b6020830191508360018202830111156107635761076261070f565b5b9250929050565b60008060208385031215610781576107806106fb565b5b600083013567ffffffffffffffff81111561079f5761079e610700565b5b6107ab85828601610714565b92509250509250929050565b6000819050919050565b6107ca816107b7565b82525050565b60006020820190506107e560008301846107c1565b92915050565b600073ffffffffffffffffffffffffffffffffffffffff82169050919050565b6000610816826107eb565b9050919050565b6108268161080b565b811461083157600080fd5b50565b6000813590506108438161081d565b92915050565b60006020828403121561085f5761085e6106fb565b5b600061086d84828501610834565b91505092915050565b600081519050919050565b600082825260208201905092915050565b60005b838110156108b0578082015181840152602081019050610895565b838111156108bf576000848401525b50505050565b6000601f19601f8301169050919050565b60006108e182610876565b6108eb8185610881565b93506108fb818560208601610892565b610904816108c5565b840191505092915050565b7f4e487b7100000000000000000000000000000000000000000000000000000000600052602160045260246000fd5b6004811061094f5761094e61090f565b5b50565b60008190506109608261093e565b919050565b600061097082610952565b9050919050565b61098081610965565b82525050565b600060a08201905081810360008301526109a081886108d6565b905081810360208301526109b481876108d6565b905081810360408301526109c881866108d6565b90506109d760608301856107c1565b6109e46080830184610977565b9695505050505050565b6109f7816107b7565b8114610a0257600080fd5b50565b600081359050610a14816109ee565b92915050565b60008060008060008060006080888a031215610a3957610a386106fb565b5b6000610a478a828b01610a05565b975050602088013567ffffffffffffffff811115610a6857610a67610700565b5b610a748a828b01610714565b9650965050604088013567ffffffffffffffff811115610a9757610a96610700565b5b610aa38a828b01610714565b9450945050606088013567ffffffffffffffff811115610ac657610ac5610700565b5b610ad28a828b01610714565b925092505092959891949750929550565b600060208284031215610af957610af86106fb565b5b6000610b0784828501610a05565b91505092915050565b6000819050919050565b610b2381610b10565b82525050565b6000602082019050610b3e6000830184610b1a565b92915050565b60008060008060008060808789031215610b6157610b606106fb565b5b6000610b6f89828a01610a05565b9650506020610b8089828a01610834565b955050604087013567ffffffffffffffff811115610ba157610ba0610700565b5b610bad89828a01610714565b9450945050606087013567ffffffffffffffff811115610bd057610bcf610700565b5b610bdc89828a01610714565b92509250509295509295509295565b600081905092915050565b82818337600083830152505050565b6000610c118385610beb565b9350610c1e838584610bf6565b82840190509392505050565b6000610c37828486610c05565b91508190509392505050565b7f4e487b7100000000000000000000000000000000000000000000000000000000600052602260045260246000fd5b60006002820490506001821680610c8a57607f821691505b602082108103610c9d57610c9c610c43565b5b50919050565b6000819050919050565b610cbe610cb9826107b7565b610ca3565b82525050565b6000610cd08284610cad565b60208201915081905092915050565b60008160601b9050919050565b6000610cf782610cdf565b9050919050565b6000610d0982610cec565b9050919050565b610d21610d1c8261080b565b610cfe565b82525050565b6000610d338289610cad565b602082019150610d438288610d10565b601482019150610d54828688610c05565b9150610d61828486610c05565b915081905097965050505050505056fea26469706673582212209b37fbc91872a67c43473d22aa3607164db84e24339ec689e6924be6de8747c664736f6c634300080d0033",
  "linkReferences": {},
  "deployedLinkReferences": {}
}