{
  "_format": "hh-sol-artifact-1",
  "contractName": "UserLocation",
  "sourceName": "contracts/UserLocation.sol",
  "abi": [
    {
      "anonymous": false,
      "inputs": [
        {
          "indexed": false,
          "internalType": "uint8",
          "name": "version",
          "type": "uint8"
        }
      ],
      "name": "Initialized",
      "type": "event"
    },
    {
      "anonymous": false,
      "inputs": [
        {
          "indexed": false,
          "internalType": "address",
          "name": "user",
          "type": "address"
        },
        {
          "indexed": false,
          "internalType": "bytes32",
          "name": "cityId",
          "type": "bytes32"
        },
        {
          "indexed": false,
          "internalType": "string",
          "name": "location",
          "type": "string"
        }
      ],
      "name": "UserLocationRecord",
      "type": "event"
    },
    {
      "inputs": [],
      "name": "cityIdNum",
      "outputs": [
        {
          "internalType": "uint256",
          "name": "",
          "type": "uint256"
        }
      ],
      "stateMutability": "view",
      "type": "function"
    },
    {
      "inputs": [
        {
          "internalType": "uint256",
          "name": "",
          "type": "uint256"
        }
      ],
      "name": "cityIds",
      "outputs": [
        {
          "internalType": "bytes32",
          "name": "",
          "type": "bytes32"
        }
      ],
      "stateMutability": "view",
      "type": "function"
    },
    {
      "inputs": [
        {
          "internalType": "bytes32",
          "name": "",
          "type": "bytes32"
        }
      ],
      "name": "cityInfo",
      "outputs": [
        {
          "internalType": "string",
          "name": "",
          "type": "string"
        }
      ],
      "stateMutability": "view",
      "type": "function"
    },
    {
      "inputs": [],
      "name": "initialize",
      "outputs": [],
      "stateMutability": "nonpayable",
      "type": "function"
    },
    {
      "inputs": [
        {
          "internalType": "bytes32",
          "name": "cityId_",
          "type": "bytes32"
        },
        {
          "internalType": "string",
          "name": "location_",
          "type": "string"
        }
      ],
      "name": "setUserLocation",
      "outputs": [],
      "stateMutability": "nonpayable",
      "type": "function"
    },
    {
      "inputs": [
        {
          "internalType": "bytes32",
          "name": "",
          "type": "bytes32"
        }
      ],
      "name": "userNumberOfCity",
      "outputs": [
        {
          "internalType": "uint256",
          "name": "",
          "type": "uint256"
        }
      ],
      "stateMutability": "view",
      "type": "function"
    }
  ],
  "bytecode": "0x608060405234801561001057600080fd5b50610db1806100206000396000f3fe608060405234801561001057600080fd5b50600436106100625760003560e01c806356a072951461006757806372e53ecd1461008357806375e6a6d4146100b35780638129fc1c146100e3578063d03834b5146100ed578063f896a2281461011d575b600080fd5b610081600480360381019061007c919061072a565b61013b565b005b61009d6004803603810190610098919061078a565b61034b565b6040516100aa9190610850565b60405180910390f35b6100cd60048036038101906100c891906108a8565b6103eb565b6040516100da91906108e4565b60405180910390f35b6100eb61040f565b005b6101076004803603810190610102919061078a565b610545565b604051610114919061090e565b60405180910390f35b61012561055d565b604051610132919061090e565b60405180910390f35b600560003373ffffffffffffffffffffffffffffffffffffffff1673ffffffffffffffffffffffffffffffffffffffff16815260200190815260200160002060009054906101000a900460ff16156101c8576040517f08c379a00000000000000000000000000000000000000000000000000000000081526004016101bf90610975565b60405180910390fd5b6101e2828260405180602001604052806000815250610563565b15610222576040517f08c379a0000000000000000000000000000000000000000000000000000000008152600401610219906109e1565b60405180910390fd5b60016004600085815260200190815260200160002060008282546102469190610a30565b92505081905550600283908060018154018082558091505060019003906000526020600020016000909190919091505581816001600086815260200190815260200160002091906102989291906105e2565b506001600560003373ffffffffffffffffffffffffffffffffffffffff1673ffffffffffffffffffffffffffffffffffffffff16815260200190815260200160002060006101000a81548160ff0219169083151502179055506003600081548092919061030490610a86565b91905055507fcac51e2b22a0c7477d48ef20bc67251d74aa161293e1fa5cdf916a8066a6be743384848460405161033e9493929190610b4b565b60405180910390a1505050565b6001602052806000526040600020600091509050805461036a90610bba565b80601f016020809104026020016040519081016040528092919081815260200182805461039690610bba565b80156103e35780601f106103b8576101008083540402835291602001916103e3565b820191906000526020600020905b8154815290600101906020018083116103c657829003601f168201915b505050505081565b600281815481106103fb57600080fd5b906000526020600020016000915090505481565b60008060019054906101000a900460ff161590508080156104405750600160008054906101000a900460ff1660ff16105b8061046d575061044f306105bf565b15801561046c5750600160008054906101000a900460ff1660ff16145b5b6104ac576040517f08c379a00000000000000000000000000000000000000000000000000000000081526004016104a390610c5d565b60405180910390fd5b60016000806101000a81548160ff021916908360ff16021790555080156104e9576001600060016101000a81548160ff0219169083151502179055505b80156105425760008060016101000a81548160ff0219169083151502179055507f7f26b83ff96e1f2b6a682f133852f6798a09c465da95921460cefb384740249860016040516105399190610ccf565b60405180910390a15b50565b60046020528060005260406000206000915090505481565b60035481565b6000816040516020016105769190610d26565b60405160208183030381529060405280519060200120848460405160200161059f929190610d62565b604051602081830303815290604052805190602001201490509392505050565b6000808273ffffffffffffffffffffffffffffffffffffffff163b119050919050565b8280546105ee90610bba565b90600052602060002090601f0160209004810192826106105760008555610657565b82601f1061062957803560ff1916838001178555610657565b82800160010185558215610657579182015b8281111561065657823582559160200191906001019061063b565b5b5090506106649190610668565b5090565b5b80821115610681576000816000905550600101610669565b5090565b600080fd5b600080fd5b6000819050919050565b6106a28161068f565b81146106ad57600080fd5b50565b6000813590506106bf81610699565b92915050565b600080fd5b600080fd5b600080fd5b60008083601f8401126106ea576106e96106c5565b5b8235905067ffffffffffffffff811115610707576107066106ca565b5b602083019150836001820283011115610723576107226106cf565b5b9250929050565b60008060006040848603121561074357610742610685565b5b6000610751868287016106b0565b935050602084013567ffffffffffffffff8111156107725761077161068a565b5b61077e868287016106d4565b92509250509250925092565b6000602082840312156107a05761079f610685565b5b60006107ae848285016106b0565b91505092915050565b600081519050919050565b600082825260208201905092915050565b60005b838110156107f15780820151818401526020810190506107d6565b83811115610800576000848401525b50505050565b6000601f19601f8301169050919050565b6000610822826107b7565b61082c81856107c2565b935061083c8185602086016107d3565b61084581610806565b840191505092915050565b6000602082019050818103600083015261086a8184610817565b905092915050565b6000819050919050565b61088581610872565b811461089057600080fd5b50565b6000813590506108a28161087c565b92915050565b6000602082840312156108be576108bd610685565b5b60006108cc84828501610893565b91505092915050565b6108de8161068f565b82525050565b60006020820190506108f960008301846108d5565b92915050565b61090881610872565b82525050565b600060208201905061092360008301846108ff565b92915050565b7f63616e74206e6f742073657420616e79206d6f72650000000000000000000000600082015250565b600061095f6015836107c2565b915061096a82610929565b602082019050919050565b6000602082019050818103600083015261098e81610952565b9050919050565b7f6c6f636174696f6e20697320656d707479000000000000000000000000000000600082015250565b60006109cb6011836107c2565b91506109d682610995565b602082019050919050565b600060208201905081810360008301526109fa816109be565b9050919050565b7f4e487b7100000000000000000000000000000000000000000000000000000000600052601160045260246000fd5b6000610a3b82610872565b9150610a4683610872565b9250827fffffffffffffffffffffffffffffffffffffffffffffffffffffffffffffffff03821115610a7b57610a7a610a01565b5b828201905092915050565b6000610a9182610872565b91507fffffffffffffffffffffffffffffffffffffffffffffffffffffffffffffffff8203610ac357610ac2610a01565b5b600182019050919050565b600073ffffffffffffffffffffffffffffffffffffffff82169050919050565b6000610af982610ace565b9050919050565b610b0981610aee565b82525050565b82818337600083830152505050565b6000610b2a83856107c2565b9350610b37838584610b0f565b610b4083610806565b840190509392505050565b6000606082019050610b606000830187610b00565b610b6d60208301866108d5565b8181036040830152610b80818486610b1e565b905095945050505050565b7f4e487b7100000000000000000000000000000000000000000000000000000000600052602260045260246000fd5b60006002820490506001821680610bd257607f821691505b602082108103610be557610be4610b8b565b5b50919050565b7f496e697469616c697a61626c653a20636f6e747261637420697320616c72656160008201527f647920696e697469616c697a6564000000000000000000000000000000000000602082015250565b6000610c47602e836107c2565b9150610c5282610beb565b604082019050919050565b60006020820190508181036000830152610c7681610c3a565b9050919050565b6000819050919050565b600060ff82169050919050565b6000819050919050565b6000610cb9610cb4610caf84610c7d565b610c94565b610c87565b9050919050565b610cc981610c9e565b82525050565b6000602082019050610ce46000830184610cc0565b92915050565b600081905092915050565b6000610d00826107b7565b610d0a8185610cea565b9350610d1a8185602086016107d3565b80840191505092915050565b6000610d328284610cf5565b915081905092915050565b6000610d498385610cea565b9350610d56838584610b0f565b82840190509392505050565b6000610d6f828486610d3d565b9150819050939250505056fea26469706673582212205ab1630e49ba8c0205795256272a76dffa777731a49aa4c793ca294290058ec064736f6c634300080d0033",
  "linkReferences": {},
  "deployedLinkReferences": {}
}